{
  "contractName": "Voting",
  "abi": [
    {
      "inputs": [],
      "payable": false,
      "stateMutability": "nonpayable",
      "type": "constructor"
    },
    {
      "anonymous": false,
      "inputs": [
        {
          "indexed": false,
          "internalType": "uint256",
          "name": "id",
          "type": "uint256"
        }
      ],
      "name": "ResultsRevealed",
      "type": "event"
    },
    {
      "anonymous": false,
      "inputs": [
        {
          "indexed": false,
          "internalType": "uint256",
          "name": "sessionId",
          "type": "uint256"
        },
        {
          "indexed": false,
          "internalType": "address",
          "name": "voter",
          "type": "address"
        },
        {
          "indexed": false,
          "internalType": "string",
          "name": "option",
          "type": "string"
        }
      ],
      "name": "Voted",
      "type": "event"
    },
    {
      "anonymous": false,
      "inputs": [
        {
          "indexed": false,
          "internalType": "uint256",
          "name": "id",
          "type": "uint256"
        },
        {
          "indexed": false,
          "internalType": "string",
          "name": "name",
          "type": "string"
        },
        {
          "indexed": false,
          "internalType": "string",
          "name": "description",
          "type": "string"
        },
        {
          "indexed": false,
          "internalType": "uint256",
          "name": "endDate",
          "type": "uint256"
        }
      ],
      "name": "VotingCreated",
      "type": "event"
    },
    {
      "anonymous": false,
      "inputs": [
        {
          "indexed": false,
          "internalType": "uint256",
          "name": "id",
          "type": "uint256"
        }
      ],
      "name": "VotingEnded",
      "type": "event"
    },
    {
      "constant": true,
      "inputs": [
        {
          "internalType": "uint256",
          "name": "",
          "type": "uint256"
        },
        {
          "internalType": "address",
          "name": "",
          "type": "address"
        }
      ],
      "name": "hasVoted",
      "outputs": [
        {
          "internalType": "bool",
          "name": "",
          "type": "bool"
        }
      ],
      "payable": false,
      "stateMutability": "view",
      "type": "function"
    },
    {
      "constant": true,
      "inputs": [],
      "name": "owner",
      "outputs": [
        {
          "internalType": "address",
          "name": "",
          "type": "address"
        }
      ],
      "payable": false,
      "stateMutability": "view",
      "type": "function"
    },
    {
      "constant": true,
      "inputs": [
        {
          "internalType": "uint256",
          "name": "",
          "type": "uint256"
        },
        {
          "internalType": "string",
          "name": "",
          "type": "string"
        }
      ],
      "name": "votes",
      "outputs": [
        {
          "internalType": "uint256",
          "name": "",
          "type": "uint256"
        }
      ],
      "payable": false,
      "stateMutability": "view",
      "type": "function"
    },
    {
      "constant": true,
      "inputs": [
        {
          "internalType": "uint256",
          "name": "",
          "type": "uint256"
        }
      ],
      "name": "votingSessions",
      "outputs": [
        {
          "internalType": "uint256",
          "name": "id",
          "type": "uint256"
        },
        {
          "internalType": "string",
          "name": "name",
          "type": "string"
        },
        {
          "internalType": "string",
          "name": "description",
          "type": "string"
        },
        {
          "internalType": "uint256",
          "name": "endDate",
          "type": "uint256"
        },
        {
          "internalType": "bool",
          "name": "isActive",
          "type": "bool"
        },
        {
          "internalType": "bool",
          "name": "resultsRevealed",
          "type": "bool"
        },
        {
          "internalType": "bool",
          "name": "deleted",
          "type": "bool"
        },
        {
          "internalType": "address",
          "name": "creator",
          "type": "address"
        }
      ],
      "payable": false,
      "stateMutability": "view",
      "type": "function"
    },
    {
      "constant": false,
      "inputs": [
        {
          "internalType": "string",
          "name": "_name",
          "type": "string"
        },
        {
          "internalType": "string",
          "name": "_description",
          "type": "string"
        },
        {
          "internalType": "string[]",
          "name": "_options",
          "type": "string[]"
        },
        {
          "internalType": "bool",
          "name": "revealed",
          "type": "bool"
        },
        {
          "internalType": "uint256",
          "name": "_endDate",
          "type": "uint256"
        }
      ],
      "name": "createVoting",
      "outputs": [],
      "payable": false,
      "stateMutability": "nonpayable",
      "type": "function"
    },
    {
      "constant": true,
      "inputs": [
        {
          "internalType": "uint256",
          "name": "_id",
          "type": "uint256"
        }
      ],
      "name": "getVotingSession",
      "outputs": [
        {
          "internalType": "string",
          "name": "",
          "type": "string"
        },
        {
          "internalType": "string",
          "name": "",
          "type": "string"
        },
        {
          "internalType": "string[]",
          "name": "",
          "type": "string[]"
        },
        {
          "internalType": "uint256",
          "name": "",
          "type": "uint256"
        },
        {
          "internalType": "bool",
          "name": "",
          "type": "bool"
        },
        {
          "internalType": "address",
          "name": "",
          "type": "address"
        },
        {
          "internalType": "bool",
          "name": "",
          "type": "bool"
        },
        {
          "internalType": "bool",
          "name": "",
          "type": "bool"
        }
      ],
      "payable": false,
      "stateMutability": "view",
      "type": "function"
    },
    {
      "constant": true,
      "inputs": [],
      "name": "getVotingSessions",
      "outputs": [
        {
          "internalType": "uint256[]",
          "name": "",
          "type": "uint256[]"
        },
        {
          "internalType": "string[]",
          "name": "",
          "type": "string[]"
        },
        {
          "internalType": "string[]",
          "name": "",
          "type": "string[]"
        },
        {
          "internalType": "uint256[]",
          "name": "",
          "type": "uint256[]"
        },
        {
          "internalType": "bool[]",
          "name": "",
          "type": "bool[]"
        },
        {
          "internalType": "address[]",
          "name": "",
          "type": "address[]"
        },
        {
          "internalType": "bool[]",
          "name": "",
          "type": "bool[]"
        }
      ],
      "payable": false,
      "stateMutability": "view",
      "type": "function"
    },
    {
      "constant": true,
      "inputs": [
        {
          "internalType": "uint256",
          "name": "_id",
          "type": "uint256"
        }
      ],
      "name": "getVotingSessionOptions",
      "outputs": [
        {
          "internalType": "string[]",
          "name": "",
          "type": "string[]"
        }
      ],
      "payable": false,
      "stateMutability": "view",
      "type": "function"
    },
    {
      "constant": false,
      "inputs": [
        {
          "internalType": "uint256",
          "name": "_id",
          "type": "uint256"
        },
        {
          "internalType": "string",
          "name": "_option",
          "type": "string"
        }
      ],
      "name": "vote",
      "outputs": [],
      "payable": false,
      "stateMutability": "nonpayable",
      "type": "function"
    },
    {
      "constant": true,
      "inputs": [
        {
          "internalType": "uint256",
          "name": "_id",
          "type": "uint256"
        }
      ],
      "name": "getVotes",
      "outputs": [
        {
          "internalType": "string[]",
          "name": "",
          "type": "string[]"
        },
        {
          "internalType": "uint256[]",
          "name": "",
          "type": "uint256[]"
        }
      ],
      "payable": false,
      "stateMutability": "view",
      "type": "function"
    },
    {
      "constant": false,
      "inputs": [
        {
          "internalType": "uint256",
          "name": "_id",
          "type": "uint256"
        }
      ],
      "name": "revealResults",
      "outputs": [],
      "payable": false,
      "stateMutability": "nonpayable",
      "type": "function"
    },
    {
      "constant": true,
      "inputs": [],
      "name": "getAllVotes",
      "outputs": [
        {
          "internalType": "uint256[]",
          "name": "",
          "type": "uint256[]"
        },
        {
          "internalType": "string[]",
          "name": "",
          "type": "string[]"
        },
        {
          "internalType": "uint256[]",
          "name": "",
          "type": "uint256[]"
        }
      ],
      "payable": false,
      "stateMutability": "view",
      "type": "function"
    },
    {
      "constant": true,
      "inputs": [
        {
          "internalType": "uint256",
          "name": "_id",
          "type": "uint256"
        },
        {
          "internalType": "address",
          "name": "_user",
          "type": "address"
        }
      ],
      "name": "hasUserVoted",
      "outputs": [
        {
          "internalType": "bool",
          "name": "",
          "type": "bool"
        }
      ],
      "payable": false,
      "stateMutability": "view",
      "type": "function"
    },
    {
      "constant": false,
      "inputs": [
        {
          "internalType": "uint256",
          "name": "_id",
          "type": "uint256"
        }
      ],
      "name": "endVoting",
      "outputs": [],
      "payable": false,
      "stateMutability": "nonpayable",
      "type": "function"
    }
  ],
  "bytecode": "0x608060405234801561001057600080fd5b5033600360006101000a81548173ffffffffffffffffffffffffffffffffffffffff021916908373ffffffffffffffffffffffffffffffffffffffff160217905550613133806100616000396000f3fe608060405234801561001057600080fd5b50600436106100ea5760003560e01c8063851b6ef21161008c578063b8f6255a11610066578063b8f6255a14610287578063d6bd71a4146102a3578063dc296ae1146102bf578063ff981099146102ef576100ea565b8063851b6ef2146102195780638da5cb5b14610239578063b50ac5fc14610257576100ea565b80631943c90b116100c85780631943c90b1461017a57806324108475146101b157806343859632146101cd578063649f89a5146101fd576100ea565b806303e9630f146100ef5780631186eb7c1461011357806314f3f3491461014a575b600080fd5b6100f7610320565b60405161010a97969594939291906129bf565b60405180910390f35b61012d60048036036101289190810190612120565b610778565b604051610141989796959493929190612d65565b60405180910390f35b610164600480360361015f9190810190612185565b610944565b6040516101719190612cb9565b60405180910390f35b610194600480360361018f9190810190612120565b61097f565b6040516101a8989796959493929190612ac6565b60405180910390f35b6101cb60048036036101c691908101906121d9565b610ca3565b005b6101e760048036036101e29190810190612149565b61106a565b6040516101f49190612aab565b60405180910390f35b61021760048036036102129190810190612120565b611099565b005b610221611214565b60405161023093929190612a5f565b60405180910390f35b6102416114eb565b60405161024e919061294b565b60405180910390f35b610271600480360361026c9190810190612120565b611511565b60405161027e9190612966565b60405180910390f35b6102a1600480360361029c9190810190612120565b611674565b005b6102bd60048036036102b89190810190612061565b611856565b005b6102d960048036036102d49190810190612149565b611a95565b6040516102e69190612aab565b60405180910390f35b61030960048036036103049190810190612120565b611afd565b604051610317929190612988565b60405180910390f35b60608060608060608060606000808054905090506060816040519080825280602002602001820160405280156103655781602001602082028038833980820191505090505b50905060608260405190808252806020026020018201604052801561039e57816020015b60608152602001906001900390816103895790505b5090506060836040519080825280602002602001820160405280156103d757816020015b60608152602001906001900390816103c25790505b50905060608460405190808252806020026020018201604052801561040b5781602001602082028038833980820191505090505b50905060608560405190808252806020026020018201604052801561043f5781602001602082028038833980820191505090505b5090506060866040519080825280602002602001820160405280156104735781602001602082028038833980820191505090505b5090506060876040519080825280602002602001820160405280156104a75781602001602082028038833980820191505090505b50905060008090505b888110156107515760008082815481106104c657fe5b9060005260206000209060060201905080600001548983815181106104e757fe5b602002602001018181525050806001018054600181600116156101000203166002900480601f01602080910402602001604051908101604052809291908181526020018280546001816001161561010002031660029004801561058b5780601f106105605761010080835404028352916020019161058b565b820191906000526020600020905b81548152906001019060200180831161056e57829003601f168201915b505050505088838151811061059c57fe5b6020026020010181905250806002018054600181600116156101000203166002900480601f01602080910402602001604051908101604052809291908181526020018280546001816001161561010002031660029004801561063f5780601f106106145761010080835404028352916020019161063f565b820191906000526020600020905b81548152906001019060200180831161062257829003601f168201915b505050505087838151811061065057fe5b6020026020010181905250806004015486838151811061066c57fe5b6020026020010181815250508060050160009054906101000a900460ff1685838151811061069657fe5b6020026020010190151590811515815250508060050160039054906101000a900473ffffffffffffffffffffffffffffffffffffffff168483815181106106d957fe5b602002602001019073ffffffffffffffffffffffffffffffffffffffff16908173ffffffffffffffffffffffffffffffffffffffff16815250508060050160029054906101000a900460ff1683838151811061073157fe5b6020026020010190151590811515815250505080806001019150506104b0565b50868686868686869e509e509e509e509e509e509e50505050505050505090919293949596565b6000818154811061078557fe5b9060005260206000209060060201600091509050806000015490806001018054600181600116156101000203166002900480601f0160208091040260200160405190810160405280929190818152602001828054600181600116156101000203166002900480156108375780601f1061080c57610100808354040283529160200191610837565b820191906000526020600020905b81548152906001019060200180831161081a57829003601f168201915b505050505090806002018054600181600116156101000203166002900480601f0160208091040260200160405190810160405280929190818152602001828054600181600116156101000203166002900480156108d55780601f106108aa576101008083540402835291602001916108d5565b820191906000526020600020905b8154815290600101906020018083116108b857829003601f168201915b5050505050908060040154908060050160009054906101000a900460ff16908060050160019054906101000a900460ff16908060050160029054906101000a900460ff16908060050160039054906101000a900473ffffffffffffffffffffffffffffffffffffffff16905088565b600160205281600052604060002081805160208101820180518482526020830160208501208183528095505050505050600091509150505481565b6060806060600080600080600080891180156109a057506000805490508911155b6109df576040517f08c379a00000000000000000000000000000000000000000000000000000000081526004016109d690612c59565b60405180910390fd5b60008060018b03815481106109f057fe5b9060005260206000209060060201905080600101816002018260030183600401548460050160009054906101000a900460ff168560050160039054906101000a900473ffffffffffffffffffffffffffffffffffffffff168660050160019054906101000a900460ff168760050160029054906101000a900460ff16878054600181600116156101000203166002900480601f016020809104026020016040519081016040528092919081815260200182805460018160011615610100020316600290048015610b015780601f10610ad657610100808354040283529160200191610b01565b820191906000526020600020905b815481529060010190602001808311610ae457829003601f168201915b50505050509750868054600181600116156101000203166002900480601f016020809104026020016040519081016040528092919081815260200182805460018160011615610100020316600290048015610b9d5780601f10610b7257610100808354040283529160200191610b9d565b820191906000526020600020905b815481529060010190602001808311610b8057829003601f168201915b5050505050965085805480602002602001604051908101604052809291908181526020016000905b82821015610c81578382906000526020600020018054600181600116156101000203166002900480601f016020809104026020016040519081016040528092919081815260200182805460018160011615610100020316600290048015610c6d5780601f10610c4257610100808354040283529160200191610c6d565b820191906000526020600020905b815481529060010190602001808311610c5057829003601f168201915b505050505081526020019060010190610bc5565b5050505095509850985098509850985098509850985050919395975091939597565b8160006001820381548110610cb457fe5b906000526020600020906006020160050160009054906101000a900460ff16610d12576040517f08c379a0000000000000000000000000000000000000000000000000000000008152600401610d0990612bf9565b60405180910390fd5b60006001820381548110610d2257fe5b9060005260206000209060060201600401544210610d75576040517f08c379a0000000000000000000000000000000000000000000000000000000008152600401610d6c90612c79565b60405180910390fd5b60006001820381548110610d8557fe5b906000526020600020906006020160050160029054906101000a900460ff1615610de4576040517f08c379a0000000000000000000000000000000000000000000000000000000008152600401610ddb90612b79565b60405180910390fd5b6000806001850381548110610df557fe5b906000526020600020906006020190506002600085815260200190815260200160002060003373ffffffffffffffffffffffffffffffffffffffff1673ffffffffffffffffffffffffffffffffffffffff16815260200190815260200160002060009054906101000a900460ff1615610ea3576040517f08c379a0000000000000000000000000000000000000000000000000000000008152600401610e9a90612c99565b60405180910390fd5b600080905060008090505b8260030180549050811015610f3f5784604051602001610ece919061291d565b60405160208183030381529060405280519060200120836003018281548110610ef357fe5b90600052602060002001604051602001610f0d9190612934565b604051602081830303815290604052805190602001201415610f325760019150610f3f565b8080600101915050610eae565b5080610f80576040517f08c379a0000000000000000000000000000000000000000000000000000000008152600401610f7790612c39565b60405180910390fd5b6001600086815260200190815260200160002084604051610fa1919061291d565b90815260200160405180910390206000815480929190600101919050555060016002600087815260200190815260200160002060003373ffffffffffffffffffffffffffffffffffffffff1673ffffffffffffffffffffffffffffffffffffffff16815260200190815260200160002060006101000a81548160ff0219169083151502179055507f909b43dcc56d91024768bbc5c8d56441234580b2fd6176844960cbc7218cc0b585338660405161105b93929190612cd4565b60405180910390a15050505050565b60026020528160005260406000206020528060005260406000206000915091509054906101000a900460ff1681565b80600060018203815481106110aa57fe5b906000526020600020906006020160050160039054906101000a900473ffffffffffffffffffffffffffffffffffffffff1673ffffffffffffffffffffffffffffffffffffffff163373ffffffffffffffffffffffffffffffffffffffff1614611149576040517f08c379a000000000000000000000000000000000000000000000000000000000815260040161114090612c19565b60405180910390fd5b600080600184038154811061115a57fe5b906000526020600020906006020190508060050160009054906101000a900460ff166111bb576040517f08c379a00000000000000000000000000000000000000000000000000000000081526004016111b290612bd9565b60405180910390fd5b60008160050160006101000a81548160ff0219169083151502179055507f81eb7415440ff8e6c8e92606fd3b0e5e6a5c99ea90cdb63b41aec54e897312b3836040516112079190612cb9565b60405180910390a1505050565b6060806060600080805490509050600080905060008090505b82811015611268576000818154811061124257fe5b90600052602060002090600602016003018054905082019150808060010191505061122d565b5060608160405190808252806020026020018201604052801561129a5781602001602082028038833980820191505090505b5090506060826040519080825280602002602001820160405280156112d357816020015b60608152602001906001900390816112be5790505b5090506060836040519080825280602002602001820160405280156113075781602001602082028038833980820191505090505b509050600080905060008090505b868110156114d657600080828154811061132b57fe5b906000526020600020906006020190508060050160019054906101000a900460ff16156114c85760008090505b81600301805490508110156114c657816000015487858151811061137857fe5b60200260200101818152505081600301818154811061139357fe5b906000526020600020018054600181600116156101000203166002900480601f0160208091040260200160405190810160405280929190818152602001828054600181600116156101000203166002900480156114315780601f1061140657610100808354040283529160200191611431565b820191906000526020600020905b81548152906001019060200180831161141457829003601f168201915b505050505086858151811061144257fe5b6020026020010181905250600160008360000154815260200190815260200160002082600301828154811061147357fe5b9060005260206000200160405161148a9190612934565b9081526020016040518091039020548585815181106114a557fe5b60200260200101818152505083806001019450508080600101915050611358565b505b508080600101915050611315565b50838383985098509850505050505050909192565b600360009054906101000a900473ffffffffffffffffffffffffffffffffffffffff1681565b606060008211801561152857506000805490508211155b611567576040517f08c379a000000000000000000000000000000000000000000000000000000000815260040161155e90612c59565b60405180910390fd5b600080600184038154811061157857fe5b9060005260206000209060060201905080600301805480602002602001604051908101604052809291908181526020016000905b82821015611668578382906000526020600020018054600181600116156101000203166002900480601f0160208091040260200160405190810160405280929190818152602001828054600181600116156101000203166002900480156116545780601f1061162957610100808354040283529160200191611654565b820191906000526020600020905b81548152906001019060200180831161163757829003601f168201915b5050505050815260200190600101906115ac565b50505050915050919050565b806000600182038154811061168557fe5b906000526020600020906006020160050160039054906101000a900473ffffffffffffffffffffffffffffffffffffffff1673ffffffffffffffffffffffffffffffffffffffff163373ffffffffffffffffffffffffffffffffffffffff1614611724576040517f08c379a000000000000000000000000000000000000000000000000000000000815260040161171b90612c19565b60405180910390fd5b816000600182038154811061173557fe5b906000526020600020906006020160040154421015611789576040517f08c379a000000000000000000000000000000000000000000000000000000000815260040161178090612b99565b60405180910390fd5b600080600185038154811061179a57fe5b906000526020600020906006020190508060050160019054906101000a900460ff16156117fc576040517f08c379a00000000000000000000000000000000000000000000000000000000081526004016117f390612bb9565b60405180910390fd5b60018160050160016101000a81548160ff0219169083151502179055507fdad003ccb029c02aa1b065bb7ecdf9df8b66c4a46dcdb93befeb2b3408a2849a846040516118489190612cb9565b60405180910390a150505050565b428111611898576040517f08c379a000000000000000000000000000000000000000000000000000000000815260040161188f90612b59565b60405180910390fd5b6118a0611d25565b604051806101200160405280600160008054905001815260200187815260200186815260200185815260200183815260200160011515815260200184151581526020016000151581526020013373ffffffffffffffffffffffffffffffffffffffff1681525090506000819080600181540180825580915050906001820390600052602060002090600602016000909192909190915060008201518160000155602082015181600101908051906020019061195c929190611d8d565b506040820151816002019080519060200190611979929190611d8d565b506060820151816003019080519060200190611996929190611e0d565b506080820151816004015560a08201518160050160006101000a81548160ff02191690831515021790555060c08201518160050160016101000a81548160ff02191690831515021790555060e08201518160050160026101000a81548160ff0219169083151502179055506101008201518160050160036101000a81548173ffffffffffffffffffffffffffffffffffffffff021916908373ffffffffffffffffffffffffffffffffffffffff1602179055505050507f16a79dbbc08c39bc816dcd85d8c18dbfd5dc3425f73d4acbe6a0eb93b7fcae0c8160000151878785604051611a859493929190612d12565b60405180910390a1505050505050565b60006002600084815260200190815260200160002060008373ffffffffffffffffffffffffffffffffffffffff1673ffffffffffffffffffffffffffffffffffffffff16815260200190815260200160002060009054906101000a900460ff16905092915050565b606080600083118015611b1557506000805490508311155b611b54576040517f08c379a0000000000000000000000000000000000000000000000000000000008152600401611b4b90612c59565b60405180910390fd5b6000806001850381548110611b6557fe5b90600052602060002090600602019050600081600301805490509050606081604051908082528060200260200182016040528015611bb25781602001602082028038833980820191505090505b50905060008090505b82811015611c305760016000888152602001908152602001600020846003018281548110611be557fe5b90600052602060002001604051611bfc9190612934565b908152602001604051809103902054828281518110611c1757fe5b6020026020010181815250508080600101915050611bbb565b50826003018181805480602002602001604051908101604052809291908181526020016000905b82821015611d13578382906000526020600020018054600181600116156101000203166002900480601f016020809104026020016040519081016040528092919081815260200182805460018160011615610100020316600290048015611cff5780601f10611cd457610100808354040283529160200191611cff565b820191906000526020600020905b815481529060010190602001808311611ce257829003601f168201915b505050505081526020019060010190611c57565b50505050915094509450505050915091565b6040518061012001604052806000815260200160608152602001606081526020016060815260200160008152602001600015158152602001600015158152602001600015158152602001600073ffffffffffffffffffffffffffffffffffffffff1681525090565b828054600181600116156101000203166002900490600052602060002090601f016020900481019282601f10611dce57805160ff1916838001178555611dfc565b82800160010185558215611dfc579182015b82811115611dfb578251825591602001919060010190611de0565b5b509050611e099190611e6d565b5090565b828054828255906000526020600020908101928215611e5c579160200282015b82811115611e5b578251829080519060200190611e4b929190611d8d565b5091602001919060010190611e2d565b5b509050611e699190611e92565b5090565b611e8f91905b80821115611e8b576000816000905550600101611e73565b5090565b90565b611ebb91905b80821115611eb75760008181611eae9190611ebe565b50600101611e98565b5090565b90565b50805460018160011615610100020316600290046000825580601f10611ee45750611f03565b601f016020900490600052602060002090810190611f029190611e6d565b5b50565b600081359050611f15816130ab565b92915050565b600082601f830112611f2c57600080fd5b8135611f3f611f3a82612e1e565b612df1565b9150818183526020840193506020810190508360005b83811015611f855781358601611f6b8882611fa4565b845260208401935060208301925050600181019050611f55565b5050505092915050565b600081359050611f9e816130c2565b92915050565b600082601f830112611fb557600080fd5b8135611fc8611fc382612e46565b612df1565b91508082526020830160208301858383011115611fe457600080fd5b611fef838284613058565b50505092915050565b600082601f83011261200957600080fd5b813561201c61201782612e72565b612df1565b9150808252602083016020830185838301111561203857600080fd5b612043838284613058565b50505092915050565b60008135905061205b816130d9565b92915050565b600080600080600060a0868803121561207957600080fd5b600086013567ffffffffffffffff81111561209357600080fd5b61209f88828901611ff8565b955050602086013567ffffffffffffffff8111156120bc57600080fd5b6120c888828901611ff8565b945050604086013567ffffffffffffffff8111156120e557600080fd5b6120f188828901611f1b565b935050606061210288828901611f8f565b92505060806121138882890161204c565b9150509295509295909350565b60006020828403121561213257600080fd5b60006121408482850161204c565b91505092915050565b6000806040838503121561215c57600080fd5b600061216a8582860161204c565b925050602061217b85828601611f06565b9150509250929050565b6000806040838503121561219857600080fd5b60006121a68582860161204c565b925050602083013567ffffffffffffffff8111156121c357600080fd5b6121cf85828601611fa4565b9150509250929050565b600080604083850312156121ec57600080fd5b60006121fa8582860161204c565b925050602083013567ffffffffffffffff81111561221757600080fd5b61222385828601611ff8565b9150509250929050565b60006122398383612298565b60208301905092915050565b60006122518383612445565b60208301905092915050565b600061226983836124cd565b905092915050565b600061227d83836128ff565b60208301905092915050565b61229281613022565b82525050565b6122a181612fda565b82525050565b6122b081612fda565b82525050565b60006122c182612ef3565b6122cb8185612f69565b93506122d683612e9e565b8060005b838110156123075781516122ee888261222d565b97506122f983612f35565b9250506001810190506122da565b5085935050505092915050565b600061231f82612efe565b6123298185612f7a565b935061233483612eae565b8060005b8381101561236557815161234c8882612245565b975061235783612f42565b925050600181019050612338565b5085935050505092915050565b600061237d82612f09565b6123878185612f8b565b93508360208202850161239985612ebe565b8060005b858110156123d557848403895281516123b6858261225d565b94506123c183612f4f565b925060208a0199505060018101905061239d565b50829750879550505050505092915050565b60006123f282612f14565b6123fc8185612f9c565b935061240783612ece565b8060005b8381101561243857815161241f8882612271565b975061242a83612f5c565b92505060018101905061240b565b5085935050505092915050565b61244e81612fec565b82525050565b61245d81612fec565b82525050565b600061246e82612f2a565b6124788185612fbe565b9350612488818560208601613067565b6124918161309a565b840191505092915050565b60006124a782612f2a565b6124b18185612fcf565b93506124c1818560208601613067565b80840191505092915050565b60006124d882612f1f565b6124e28185612fad565b93506124f2818560208601613067565b6124fb8161309a565b840191505092915050565b600061251182612f1f565b61251b8185612fbe565b935061252b818560208601613067565b6125348161309a565b840191505092915050565b60008154600181166000811461255c5760018114612581576125c5565b607f600283041661256d8187612fcf565b955060ff19831686528086019350506125c5565b6002820461258f8187612fcf565b955061259a85612ede565b60005b828110156125bc5781548189015260018201915060208101905061259d565b82880195505050505b505092915050565b60006125da602283612fbe565b91507f54686520656e642064617465206d75737420626520696e20746865206675747560008301527f72650000000000000000000000000000000000000000000000000000000000006020830152604082019050919050565b6000612640601983612fbe565b91507f566f74696e672073657373696f6e2069732064656c65746564000000000000006000830152602082019050919050565b6000612680601683612fbe565b91507f566f74696e67206973207374696c6c20616374697665000000000000000000006000830152602082019050919050565b60006126c0602283612fbe565b91507f526573756c7473206861766520616c7265616479206265656e2072657665616c60008301527f65640000000000000000000000000000000000000000000000000000000000006020830152604082019050919050565b6000612726601783612fbe565b91507f566f74696e6720697320616c726561647920656e6465640000000000000000006000830152602082019050919050565b6000612766601483612fbe565b91507f566f74696e67206973206e6f74206163746976650000000000000000000000006000830152602082019050919050565b60006127a6603e83612fbe565b91507f4f6e6c79207468652063726561746f72206f662074686520766f74696e67207360008301527f657373696f6e2063616e20706572666f726d207468697320616374696f6e00006020830152604082019050919050565b600061280c601c83612fbe565b91507f566f74696e67206f7074696f6e20646f6573206e6f74206578697374000000006000830152602082019050919050565b600061284c601183612fbe565b91507f496e76616c696420766f74696e672049440000000000000000000000000000006000830152602082019050919050565b600061288c601783612fbe565b91507f566f74696e672074696d652068617320657870697265640000000000000000006000830152602082019050919050565b60006128cc601683612fbe565b91507f596f75206861766520616c726561647920766f746564000000000000000000006000830152602082019050919050565b61290881613018565b82525050565b61291781613018565b82525050565b6000612929828461249c565b915081905092915050565b6000612940828461253f565b915081905092915050565b600060208201905061296060008301846122a7565b92915050565b600060208201905081810360008301526129808184612372565b905092915050565b600060408201905081810360008301526129a28185612372565b905081810360208301526129b681846123e7565b90509392505050565b600060e08201905081810360008301526129d9818a6123e7565b905081810360208301526129ed8189612372565b90508181036040830152612a018188612372565b90508181036060830152612a1581876123e7565b90508181036080830152612a298186612314565b905081810360a0830152612a3d81856122b6565b905081810360c0830152612a518184612314565b905098975050505050505050565b60006060820190508181036000830152612a7981866123e7565b90508181036020830152612a8d8185612372565b90508181036040830152612aa181846123e7565b9050949350505050565b6000602082019050612ac06000830184612454565b92915050565b6000610100820190508181036000830152612ae1818b612463565b90508181036020830152612af5818a612463565b90508181036040830152612b098189612372565b9050612b18606083018861290e565b612b256080830187612454565b612b3260a08301866122a7565b612b3f60c0830185612454565b612b4c60e0830184612454565b9998505050505050505050565b60006020820190508181036000830152612b72816125cd565b9050919050565b60006020820190508181036000830152612b9281612633565b9050919050565b60006020820190508181036000830152612bb281612673565b9050919050565b60006020820190508181036000830152612bd2816126b3565b9050919050565b60006020820190508181036000830152612bf281612719565b9050919050565b60006020820190508181036000830152612c1281612759565b9050919050565b60006020820190508181036000830152612c3281612799565b9050919050565b60006020820190508181036000830152612c52816127ff565b9050919050565b60006020820190508181036000830152612c728161283f565b9050919050565b60006020820190508181036000830152612c928161287f565b9050919050565b60006020820190508181036000830152612cb2816128bf565b9050919050565b6000602082019050612cce600083018461290e565b92915050565b6000606082019050612ce9600083018661290e565b612cf66020830185612289565b8181036040830152612d088184612463565b9050949350505050565b6000608082019050612d27600083018761290e565b8181036020830152612d398186612463565b90508181036040830152612d4d8185612463565b9050612d5c606083018461290e565b95945050505050565b600061010082019050612d7b600083018b61290e565b8181036020830152612d8d818a612506565b90508181036040830152612da18189612506565b9050612db0606083018861290e565b612dbd6080830187612454565b612dca60a0830186612454565b612dd760c0830185612454565b612de460e08301846122a7565b9998505050505050505050565b6000604051905081810181811067ffffffffffffffff82111715612e1457600080fd5b8060405250919050565b600067ffffffffffffffff821115612e3557600080fd5b602082029050602081019050919050565b600067ffffffffffffffff821115612e5d57600080fd5b601f19601f8301169050602081019050919050565b600067ffffffffffffffff821115612e8957600080fd5b601f19601f8301169050602081019050919050565b6000819050602082019050919050565b6000819050602082019050919050565b6000819050602082019050919050565b6000819050602082019050919050565b60008190508160005260206000209050919050565b600081519050919050565b600081519050919050565b600081519050919050565b600081519050919050565b600081519050919050565b600081519050919050565b6000602082019050919050565b6000602082019050919050565b6000602082019050919050565b6000602082019050919050565b600082825260208201905092915050565b600082825260208201905092915050565b600082825260208201905092915050565b600082825260208201905092915050565b600082825260208201905092915050565b600082825260208201905092915050565b600081905092915050565b6000612fe582612ff8565b9050919050565b60008115159050919050565b600073ffffffffffffffffffffffffffffffffffffffff82169050919050565b6000819050919050565b600061302d82613034565b9050919050565b600061303f82613046565b9050919050565b600061305182612ff8565b9050919050565b82818337600083830152505050565b60005b8381101561308557808201518184015260208101905061306a565b83811115613094576000848401525b50505050565b6000601f19601f8301169050919050565b6130b481612fda565b81146130bf57600080fd5b50565b6130cb81612fec565b81146130d657600080fd5b50565b6130e281613018565b81146130ed57600080fd5b5056fea365627a7a723158206fd09d2620b5cad35748a65953282d683682d89540e069da1d0a0e503e4535a66c6578706572696d656e74616cf564736f6c63430005100040",
  "source": "// SPDX-License-Identifier: UNLICENSED\r\npragma solidity >=0.4.22 <0.9.0;\r\npragma experimental ABIEncoderV2;\r\n\r\ncontract Voting {\r\n    struct VotingSession {\r\n        uint id;\r\n        string name;\r\n        string description;\r\n        string[] options;\r\n        uint endDate;\r\n        bool isActive;\r\n        bool resultsRevealed;\r\n        bool deleted;\r\n        address creator;\r\n    }\r\n\r\n    VotingSession[] public votingSessions;\r\n    mapping(uint => mapping(string => uint)) public votes;\r\n    mapping(uint => mapping(address => bool)) public hasVoted; \r\n    address public owner;\r\n\r\n    event VotingCreated(uint id, string name, string description, uint endDate);\r\n    event Voted(uint sessionId, address voter, string option);\r\n    event VotingEnded(uint id);\r\n    event ResultsRevealed(uint id);\r\n\r\n    modifier onlyOwner() {\r\n        require(msg.sender == owner, \"Only the owner can perform this action\");\r\n        _;\r\n    }\r\n\r\n    modifier onlyCreator(uint _id) {\r\n        require(msg.sender == votingSessions[_id - 1].creator, \"Only the creator of the voting session can perform this action\");\r\n        _;\r\n    }\r\n\r\n    modifier activeVoting(uint _id) {\r\n        require(votingSessions[_id - 1].isActive, \"Voting is not active\");\r\n        require(block.timestamp < votingSessions[_id - 1].endDate, \"Voting time has expired\");\r\n        require(!votingSessions[_id - 1].deleted, \"Voting session is deleted\");\r\n        _;\r\n    }\r\n\r\n    modifier votingEnded(uint _id) {\r\n        require(block.timestamp >= votingSessions[_id - 1].endDate, \"Voting is still active\");\r\n        _;\r\n    }\r\n\r\n    constructor() public {\r\n        owner = msg.sender;\r\n    }\r\n\r\n    function createVoting(string memory _name, string memory _description, string[] memory _options, bool revealed, uint _endDate) public {\r\n        require(_endDate > block.timestamp, \"The end date must be in the future\");\r\n\r\n        VotingSession memory newVoting = VotingSession({\r\n            id: votingSessions.length + 1,\r\n            name: _name,\r\n            description: _description,\r\n            options: _options,\r\n            endDate: _endDate,\r\n            isActive: true,\r\n            resultsRevealed: revealed,\r\n            deleted: false,\r\n            creator: msg.sender\r\n        });\r\n\r\n        votingSessions.push(newVoting);\r\n        emit VotingCreated(newVoting.id, _name, _description, _endDate);\r\n    }\r\n\r\n    function getVotingSession(uint _id) public view returns (string memory, string memory, string[] memory, uint, bool, address, bool, bool) {\r\n        require(_id > 0 && _id <= votingSessions.length, \"Invalid voting ID\");\r\n        VotingSession storage session = votingSessions[_id - 1];\r\n        return (session.name, session.description, session.options, session.endDate, session.isActive, session.creator, session.resultsRevealed, session.deleted);\r\n    }\r\n\r\n    function getVotingSessions() public view returns (uint[] memory, string[] memory, string[] memory, uint[] memory, bool[] memory, address[] memory, bool[] memory) {\r\n        uint length = votingSessions.length;\r\n\r\n        uint[] memory ids = new uint[](length);\r\n        string[] memory names = new string[](length);\r\n        string[] memory descriptions = new string[](length);\r\n        uint[] memory endDates = new uint[](length);\r\n        bool[] memory statuses = new bool[](length);\r\n        address[] memory creators = new address[](length);\r\n        bool[] memory deletions = new bool[](length);\r\n\r\n        for (uint i = 0; i < length; i++) {\r\n            VotingSession storage session = votingSessions[i];\r\n            ids[i] = session.id;\r\n            names[i] = session.name;\r\n            descriptions[i] = session.description;\r\n            endDates[i] = session.endDate;\r\n            statuses[i] = session.isActive;\r\n            creators[i] = session.creator;\r\n            deletions[i] = session.deleted;\r\n        }\r\n\r\n        return (ids, names, descriptions, endDates, statuses, creators, deletions);\r\n    }\r\n\r\n    function getVotingSessionOptions(uint _id) public view returns (string[] memory) {\r\n        require(_id > 0 && _id <= votingSessions.length, \"Invalid voting ID\");\r\n        VotingSession storage session = votingSessions[_id - 1];\r\n        return session.options;\r\n    }\r\n\r\n    function vote(uint _id, string memory _option) public activeVoting(_id) {\r\n        VotingSession storage session = votingSessions[_id - 1];\r\n        require(!hasVoted[_id][msg.sender], \"You have already voted\");\r\n\r\n        bool optionExists = false;\r\n        for (uint i = 0; i < session.options.length; i++) {\r\n            if (keccak256(abi.encodePacked(session.options[i])) == keccak256(abi.encodePacked(_option))) {\r\n                optionExists = true;\r\n                break;\r\n            }\r\n        }\r\n        require(optionExists, \"Voting option does not exist\");\r\n\r\n        votes[_id][_option]++;\r\n        hasVoted[_id][msg.sender] = true;\r\n        emit Voted(_id, msg.sender, _option);\r\n    }\r\n\r\n    function getVotes(uint _id) public view returns (string[] memory, uint[] memory) {\r\n        require(_id > 0 && _id <= votingSessions.length, \"Invalid voting ID\");\r\n        VotingSession storage session = votingSessions[_id - 1];\r\n\r\n        uint optionsLength = session.options.length;\r\n        uint[] memory voteCounts = new uint[](optionsLength);\r\n\r\n        for (uint i = 0; i < optionsLength; i++) {\r\n            voteCounts[i] = votes[_id][session.options[i]];\r\n        }\r\n\r\n        return (session.options, voteCounts);\r\n    }\r\n\r\n    function revealResults(uint _id) public onlyCreator(_id) votingEnded(_id) {\r\n        VotingSession storage session = votingSessions[_id - 1];\r\n        require(!session.resultsRevealed, \"Results have already been revealed\");\r\n\r\n        session.resultsRevealed = true;\r\n        emit ResultsRevealed(_id);\r\n    }\r\n\r\n    function getAllVotes() public view returns (uint[] memory, string[] memory, uint[] memory) {\r\n        uint sessionsLength = votingSessions.length;\r\n        uint totalOptions = 0;\r\n\r\n        for (uint i = 0; i < sessionsLength; i++) {\r\n            totalOptions += votingSessions[i].options.length;\r\n        }\r\n\r\n        uint[] memory sessionIds = new uint[](totalOptions);\r\n        string[] memory optionNames = new string[](totalOptions);\r\n        uint[] memory voteCounts = new uint[](totalOptions);\r\n\r\n        uint index = 0;\r\n        for (uint i = 0; i < sessionsLength; i++) {\r\n            VotingSession storage session = votingSessions[i];\r\n            if (session.resultsRevealed) {\r\n                for (uint j = 0; j < session.options.length; j++) {\r\n                    sessionIds[index] = session.id;\r\n                    optionNames[index] = session.options[j];\r\n                    voteCounts[index] = votes[session.id][session.options[j]];\r\n                    index++;\r\n                }\r\n            }\r\n        }\r\n\r\n        return (sessionIds, optionNames, voteCounts);\r\n    }\r\n\r\n    function hasUserVoted(uint _id, address _user) public view returns (bool) {\r\n        return hasVoted[_id][_user];\r\n    }\r\n\r\n    function endVoting(uint _id) public onlyCreator(_id) {\r\n        VotingSession storage session = votingSessions[_id - 1];\r\n        require(session.isActive, \"Voting is already ended\");\r\n\r\n        session.isActive = false;\r\n        emit VotingEnded(_id);\r\n    }\r\n}\r\n",
  "sourcePath": "C:\\Users\\userlenny\\Desktop\\dip\\blockchain\\contracts\\contracts\\Voting.sol",
  "compiler": {
    "name": "solc",
    "version": "0.5.16+commit.9c3226ce.Emscripten.clang"
  },
  "schemaVersion": "3.4.16",
  "updatedAt": "2024-05-31T10:42:59.972Z",
  "networkType": "ethereum",
  "devdoc": {
    "methods": {}
  },
  "userdoc": {
    "methods": {}
  }
}