{
  "contractName": "Voting",
  "abi": [
    {
      "inputs": [],
      "payable": false,
      "stateMutability": "nonpayable",
      "type": "constructor"
    },
    {
      "anonymous": false,
      "inputs": [
        {
          "indexed": false,
          "internalType": "uint256",
          "name": "sessionId",
          "type": "uint256"
        },
        {
          "indexed": false,
          "internalType": "address",
          "name": "voter",
          "type": "address"
        },
        {
          "indexed": false,
          "internalType": "string",
          "name": "option",
          "type": "string"
        }
      ],
      "name": "Voted",
      "type": "event"
    },
    {
      "anonymous": false,
      "inputs": [
        {
          "indexed": false,
          "internalType": "uint256",
          "name": "id",
          "type": "uint256"
        },
        {
          "indexed": false,
          "internalType": "string",
          "name": "name",
          "type": "string"
        },
        {
          "indexed": false,
          "internalType": "string",
          "name": "description",
          "type": "string"
        },
        {
          "indexed": false,
          "internalType": "string",
          "name": "category",
          "type": "string"
        },
        {
          "indexed": false,
          "internalType": "uint256",
          "name": "endDate",
          "type": "uint256"
        }
      ],
      "name": "VotingCreated",
      "type": "event"
    },
    {
      "anonymous": false,
      "inputs": [
        {
          "indexed": false,
          "internalType": "uint256",
          "name": "id",
          "type": "uint256"
        }
      ],
      "name": "VotingEnded",
      "type": "event"
    },
    {
      "constant": true,
      "inputs": [
        {
          "internalType": "uint256",
          "name": "",
          "type": "uint256"
        },
        {
          "internalType": "address",
          "name": "",
          "type": "address"
        }
      ],
      "name": "hasVoted",
      "outputs": [
        {
          "internalType": "bool",
          "name": "",
          "type": "bool"
        }
      ],
      "payable": false,
      "stateMutability": "view",
      "type": "function"
    },
    {
      "constant": true,
      "inputs": [],
      "name": "owner",
      "outputs": [
        {
          "internalType": "address",
          "name": "",
          "type": "address"
        }
      ],
      "payable": false,
      "stateMutability": "view",
      "type": "function"
    },
    {
      "constant": true,
      "inputs": [
        {
          "internalType": "uint256",
          "name": "",
          "type": "uint256"
        },
        {
          "internalType": "string",
          "name": "",
          "type": "string"
        }
      ],
      "name": "votes",
      "outputs": [
        {
          "internalType": "uint256",
          "name": "",
          "type": "uint256"
        }
      ],
      "payable": false,
      "stateMutability": "view",
      "type": "function"
    },
    {
      "constant": true,
      "inputs": [
        {
          "internalType": "uint256",
          "name": "",
          "type": "uint256"
        }
      ],
      "name": "votingSessions",
      "outputs": [
        {
          "internalType": "uint256",
          "name": "id",
          "type": "uint256"
        },
        {
          "internalType": "string",
          "name": "name",
          "type": "string"
        },
        {
          "internalType": "string",
          "name": "description",
          "type": "string"
        },
        {
          "internalType": "string",
          "name": "category",
          "type": "string"
        },
        {
          "internalType": "uint256",
          "name": "endDate",
          "type": "uint256"
        },
        {
          "internalType": "bool",
          "name": "isActive",
          "type": "bool"
        },
        {
          "internalType": "address",
          "name": "creator",
          "type": "address"
        }
      ],
      "payable": false,
      "stateMutability": "view",
      "type": "function"
    },
    {
      "constant": false,
      "inputs": [
        {
          "internalType": "string",
          "name": "_name",
          "type": "string"
        },
        {
          "internalType": "string",
          "name": "_description",
          "type": "string"
        },
        {
          "internalType": "string",
          "name": "_category",
          "type": "string"
        },
        {
          "internalType": "string[]",
          "name": "_options",
          "type": "string[]"
        },
        {
          "internalType": "uint256",
          "name": "_endDate",
          "type": "uint256"
        }
      ],
      "name": "createVoting",
      "outputs": [],
      "payable": false,
      "stateMutability": "nonpayable",
      "type": "function"
    },
    {
      "constant": true,
      "inputs": [
        {
          "internalType": "uint256",
          "name": "_id",
          "type": "uint256"
        }
      ],
      "name": "getVotingSession",
      "outputs": [
        {
          "internalType": "string",
          "name": "",
          "type": "string"
        },
        {
          "internalType": "string",
          "name": "",
          "type": "string"
        },
        {
          "internalType": "string",
          "name": "",
          "type": "string"
        },
        {
          "internalType": "string[]",
          "name": "",
          "type": "string[]"
        },
        {
          "internalType": "uint256",
          "name": "",
          "type": "uint256"
        },
        {
          "internalType": "bool",
          "name": "",
          "type": "bool"
        },
        {
          "internalType": "address",
          "name": "",
          "type": "address"
        }
      ],
      "payable": false,
      "stateMutability": "view",
      "type": "function"
    },
    {
      "constant": true,
      "inputs": [],
      "name": "getVotingSessions",
      "outputs": [
        {
          "internalType": "uint256[]",
          "name": "",
          "type": "uint256[]"
        },
        {
          "internalType": "string[]",
          "name": "",
          "type": "string[]"
        },
        {
          "internalType": "string[]",
          "name": "",
          "type": "string[]"
        },
        {
          "internalType": "string[]",
          "name": "",
          "type": "string[]"
        },
        {
          "internalType": "uint256[]",
          "name": "",
          "type": "uint256[]"
        },
        {
          "internalType": "bool[]",
          "name": "",
          "type": "bool[]"
        },
        {
          "internalType": "address[]",
          "name": "",
          "type": "address[]"
        }
      ],
      "payable": false,
      "stateMutability": "view",
      "type": "function"
    },
    {
      "constant": true,
      "inputs": [
        {
          "internalType": "uint256",
          "name": "_id",
          "type": "uint256"
        }
      ],
      "name": "getVotingSessionOptions",
      "outputs": [
        {
          "internalType": "string[]",
          "name": "",
          "type": "string[]"
        }
      ],
      "payable": false,
      "stateMutability": "view",
      "type": "function"
    },
    {
      "constant": false,
      "inputs": [
        {
          "internalType": "uint256",
          "name": "_id",
          "type": "uint256"
        },
        {
          "internalType": "string",
          "name": "_option",
          "type": "string"
        }
      ],
      "name": "vote",
      "outputs": [],
      "payable": false,
      "stateMutability": "nonpayable",
      "type": "function"
    },
    {
      "constant": false,
      "inputs": [
        {
          "internalType": "uint256",
          "name": "_id",
          "type": "uint256"
        }
      ],
      "name": "endVoting",
      "outputs": [],
      "payable": false,
      "stateMutability": "nonpayable",
      "type": "function"
    },
    {
      "constant": true,
      "inputs": [
        {
          "internalType": "uint256",
          "name": "_id",
          "type": "uint256"
        }
      ],
      "name": "getVotes",
      "outputs": [
        {
          "internalType": "string[]",
          "name": "",
          "type": "string[]"
        },
        {
          "internalType": "uint256[]",
          "name": "",
          "type": "uint256[]"
        }
      ],
      "payable": false,
      "stateMutability": "view",
      "type": "function"
    },
    {
      "constant": true,
      "inputs": [],
      "name": "getAllVotes",
      "outputs": [
        {
          "internalType": "uint256[]",
          "name": "",
          "type": "uint256[]"
        },
        {
          "internalType": "string[]",
          "name": "",
          "type": "string[]"
        },
        {
          "internalType": "uint256[]",
          "name": "",
          "type": "uint256[]"
        }
      ],
      "payable": false,
      "stateMutability": "view",
      "type": "function"
    },
    {
      "constant": false,
      "inputs": [
        {
          "internalType": "uint256",
          "name": "_id",
          "type": "uint256"
        }
      ],
      "name": "pauseVoting",
      "outputs": [],
      "payable": false,
      "stateMutability": "nonpayable",
      "type": "function"
    },
    {
      "constant": false,
      "inputs": [
        {
          "internalType": "uint256",
          "name": "_id",
          "type": "uint256"
        }
      ],
      "name": "resumeVoting",
      "outputs": [],
      "payable": false,
      "stateMutability": "nonpayable",
      "type": "function"
    },
    {
      "constant": false,
      "inputs": [
        {
          "internalType": "address",
          "name": "newOwner",
          "type": "address"
        }
      ],
      "name": "transferOwnership",
      "outputs": [],
      "payable": false,
      "stateMutability": "nonpayable",
      "type": "function"
    },
    {
      "constant": true,
      "inputs": [
        {
          "internalType": "uint256",
          "name": "_id",
          "type": "uint256"
        },
        {
          "internalType": "address",
          "name": "_user",
          "type": "address"
        }
      ],
      "name": "hasUserVoted",
      "outputs": [
        {
          "internalType": "bool",
          "name": "",
          "type": "bool"
        }
      ],
      "payable": false,
      "stateMutability": "view",
      "type": "function"
    }
  ],
  "bytecode": "0x608060405234801561001057600080fd5b5033600360006101000a81548173ffffffffffffffffffffffffffffffffffffffff021916908373ffffffffffffffffffffffffffffffffffffffff1602179055506136b2806100616000396000f3fe608060405234801561001057600080fd5b50600436106101005760003560e01c8063649f89a511610097578063b50ac5fc11610066578063b50ac5fc146102bf578063dc296ae1146102ef578063f2fde38b1461031f578063ff9810991461033b57610100565b8063649f89a5146102495780636550641f14610265578063851b6ef2146102815780638da5cb5b146102a157610100565b80631c221ca8116100d35780631c221ca8146101c55780631edb051e146101e157806324108475146101fd578063438596321461021957610100565b806303e9630f146101055780631186eb7c1461012957806314f3f3491461015f5780631943c90b1461018f575b600080fd5b61010d61036c565b6040516101209796959493929190612f30565b60405180910390f35b610143600480360361013e919081019061243d565b61084d565b6040516101569796959493929190613303565b60405180910390f35b610179600480360361017491908101906124a2565b610a91565b6040516101869190613242565b60405180910390f35b6101a960048036036101a4919081019061243d565b610acc565b6040516101bc9796959493929190613037565b60405180910390f35b6101df60048036036101da9190810190612366565b610e68565b005b6101fb60048036036101f6919081019061243d565b61107a565b005b610217600480360361021291908101906124f6565b6111bf565b005b610233600480360361022e9190810190612466565b611517565b604051610240919061301c565b60405180910390f35b610263600480360361025e919081019061243d565b611546565b005b61027f600480360361027a919081019061243d565b6116c1565b005b610289611805565b60405161029893929190612fd0565b60405180910390f35b6102a9611ac4565b6040516102b69190612ebc565b60405180910390f35b6102d960048036036102d4919081019061243d565b611aea565b6040516102e69190612ed7565b60405180910390f35b61030960048036036103049190810190612466565b611c4d565b604051610316919061301c565b60405180910390f35b6103396004803603610334919081019061233d565b611cb5565b005b6103556004803603610350919081019061243d565b611df9565b604051610363929190612ef9565b60405180910390f35b60608060608060608060606000808054905090506060816040519080825280602002602001820160405280156103b15781602001602082028038833980820191505090505b5090506060826040519080825280602002602001820160405280156103ea57816020015b60608152602001906001900390816103d55790505b50905060608360405190808252806020026020018201604052801561042357816020015b606081526020019060019003908161040e5790505b50905060608460405190808252806020026020018201604052801561045c57816020015b60608152602001906001900390816104475790505b5090506060856040519080825280602002602001820160405280156104905781602001602082028038833980820191505090505b5090506060866040519080825280602002602001820160405280156104c45781602001602082028038833980820191505090505b5090506060876040519080825280602002602001820160405280156104f85781602001602082028038833980820191505090505b50905060008090505b8881101561082657600080828154811061051757fe5b90600052602060002090600702019050806000015489838151811061053857fe5b602002602001018181525050806001018054600181600116156101000203166002900480601f0160208091040260200160405190810160405280929190818152602001828054600181600116156101000203166002900480156105dc5780601f106105b1576101008083540402835291602001916105dc565b820191906000526020600020905b8154815290600101906020018083116105bf57829003601f168201915b50505050508883815181106105ed57fe5b6020026020010181905250806002018054600181600116156101000203166002900480601f0160208091040260200160405190810160405280929190818152602001828054600181600116156101000203166002900480156106905780601f1061066557610100808354040283529160200191610690565b820191906000526020600020905b81548152906001019060200180831161067357829003601f168201915b50505050508783815181106106a157fe5b6020026020010181905250806003018054600181600116156101000203166002900480601f0160208091040260200160405190810160405280929190818152602001828054600181600116156101000203166002900480156107445780601f1061071957610100808354040283529160200191610744565b820191906000526020600020905b81548152906001019060200180831161072757829003601f168201915b505050505086838151811061075557fe5b6020026020010181905250806005015485838151811061077157fe5b6020026020010181815250508060060160009054906101000a900460ff1684838151811061079b57fe5b6020026020010190151590811515815250508060060160019054906101000a900473ffffffffffffffffffffffffffffffffffffffff168383815181106107de57fe5b602002602001019073ffffffffffffffffffffffffffffffffffffffff16908173ffffffffffffffffffffffffffffffffffffffff1681525050508080600101915050610501565b50868686868686869e509e509e509e509e509e509e50505050505050505090919293949596565b6000818154811061085a57fe5b9060005260206000209060070201600091509050806000015490806001018054600181600116156101000203166002900480601f01602080910402602001604051908101604052809291908181526020018280546001816001161561010002031660029004801561090c5780601f106108e15761010080835404028352916020019161090c565b820191906000526020600020905b8154815290600101906020018083116108ef57829003601f168201915b505050505090806002018054600181600116156101000203166002900480601f0160208091040260200160405190810160405280929190818152602001828054600181600116156101000203166002900480156109aa5780601f1061097f576101008083540402835291602001916109aa565b820191906000526020600020905b81548152906001019060200180831161098d57829003601f168201915b505050505090806003018054600181600116156101000203166002900480601f016020809104026020016040519081016040528092919081815260200182805460018160011615610100020316600290048015610a485780601f10610a1d57610100808354040283529160200191610a48565b820191906000526020600020905b815481529060010190602001808311610a2b57829003601f168201915b5050505050908060050154908060060160009054906101000a900460ff16908060060160019054906101000a900473ffffffffffffffffffffffffffffffffffffffff16905087565b600160205281600052604060002081805160208101820180518482526020830160208501208183528095505050505050600091509150505481565b60608060608060008060008088118015610aeb57506000805490508811155b610b2a576040517f08c379a0000000000000000000000000000000000000000000000000000000008152600401610b21906131e2565b60405180910390fd5b60008060018a0381548110610b3b57fe5b906000526020600020906007020190508060010181600201826003018360040184600501548560060160009054906101000a900460ff168660060160019054906101000a900473ffffffffffffffffffffffffffffffffffffffff16868054600181600116156101000203166002900480601f016020809104026020016040519081016040528092919081815260200182805460018160011615610100020316600290048015610c2c5780601f10610c0157610100808354040283529160200191610c2c565b820191906000526020600020905b815481529060010190602001808311610c0f57829003601f168201915b50505050509650858054600181600116156101000203166002900480601f016020809104026020016040519081016040528092919081815260200182805460018160011615610100020316600290048015610cc85780601f10610c9d57610100808354040283529160200191610cc8565b820191906000526020600020905b815481529060010190602001808311610cab57829003601f168201915b50505050509550848054600181600116156101000203166002900480601f016020809104026020016040519081016040528092919081815260200182805460018160011615610100020316600290048015610d645780601f10610d3957610100808354040283529160200191610d64565b820191906000526020600020905b815481529060010190602001808311610d4757829003601f168201915b5050505050945083805480602002602001604051908101604052809291908181526020016000905b82821015610e48578382906000526020600020018054600181600116156101000203166002900480601f016020809104026020016040519081016040528092919081815260200182805460018160011615610100020316600290048015610e345780601f10610e0957610100808354040283529160200191610e34565b820191906000526020600020905b815481529060010190602001808311610e1757829003601f168201915b505050505081526020019060010190610d8c565b505050509350975097509750975097509750975050919395979092949650565b428111610eaa576040517f08c379a0000000000000000000000000000000000000000000000000000000008152600401610ea190613222565b60405180910390fd5b610eb2612021565b60405180610100016040528060016000805490500181526020018781526020018681526020018581526020018481526020018381526020016001151581526020013373ffffffffffffffffffffffffffffffffffffffff16815250905060008190806001815401808255809150509060018203906000526020600020906007020160009091929091909150600082015181600001556020820151816001019080519060200190610f6392919061207e565b506040820151816002019080519060200190610f8092919061207e565b506060820151816003019080519060200190610f9d92919061207e565b506080820151816004019080519060200190610fba9291906120fe565b5060a0820151816005015560c08201518160060160006101000a81548160ff02191690831515021790555060e08201518160060160016101000a81548173ffffffffffffffffffffffffffffffffffffffff021916908373ffffffffffffffffffffffffffffffffffffffff1602179055505050507f169243c643f4f7eb5a74214dcd7f7976cac663d573d8184cf81a189d5225370581600001518787878660405161106a95949392919061329b565b60405180910390a1505050505050565b806000600182038154811061108b57fe5b906000526020600020906007020160060160019054906101000a900473ffffffffffffffffffffffffffffffffffffffff1673ffffffffffffffffffffffffffffffffffffffff163373ffffffffffffffffffffffffffffffffffffffff161461112a576040517f08c379a000000000000000000000000000000000000000000000000000000000815260040161112190613142565b60405180910390fd5b600080600184038154811061113b57fe5b906000526020600020906007020190508060060160009054906101000a900460ff161561119d576040517f08c379a000000000000000000000000000000000000000000000000000000000815260040161119490613162565b60405180910390fd5b60018160060160006101000a81548160ff021916908315150217905550505050565b81600060018203815481106111d057fe5b906000526020600020906007020160060160009054906101000a900460ff1661122e576040517f08c379a0000000000000000000000000000000000000000000000000000000008152600401611225906131a2565b60405180910390fd5b6000600182038154811061123e57fe5b9060005260206000209060070201600501544210611291576040517f08c379a0000000000000000000000000000000000000000000000000000000008152600401611288906130c2565b60405180910390fd5b60008060018503815481106112a257fe5b906000526020600020906007020190506002600085815260200190815260200160002060003373ffffffffffffffffffffffffffffffffffffffff1673ffffffffffffffffffffffffffffffffffffffff16815260200190815260200160002060009054906101000a900460ff1615611350576040517f08c379a0000000000000000000000000000000000000000000000000000000008152600401611347906130e2565b60405180910390fd5b600080905060008090505b82600401805490508110156113ec578460405160200161137b9190612e8e565b604051602081830303815290604052805190602001208360040182815481106113a057fe5b906000526020600020016040516020016113ba9190612ea5565b6040516020818303038152906040528051906020012014156113df57600191506113ec565b808060010191505061135b565b508061142d576040517f08c379a000000000000000000000000000000000000000000000000000000000815260040161142490613202565b60405180910390fd5b600160008681526020019081526020016000208460405161144e9190612e8e565b90815260200160405180910390206000815480929190600101919050555060016002600087815260200190815260200160002060003373ffffffffffffffffffffffffffffffffffffffff1673ffffffffffffffffffffffffffffffffffffffff16815260200190815260200160002060006101000a81548160ff0219169083151502179055507f909b43dcc56d91024768bbc5c8d56441234580b2fd6176844960cbc7218cc0b58533866040516115089392919061325d565b60405180910390a15050505050565b60026020528160005260406000206020528060005260406000206000915091509054906101000a900460ff1681565b806000600182038154811061155757fe5b906000526020600020906007020160060160019054906101000a900473ffffffffffffffffffffffffffffffffffffffff1673ffffffffffffffffffffffffffffffffffffffff163373ffffffffffffffffffffffffffffffffffffffff16146115f6576040517f08c379a00000000000000000000000000000000000000000000000000000000081526004016115ed90613142565b60405180910390fd5b600080600184038154811061160757fe5b906000526020600020906007020190508060060160009054906101000a900460ff16611668576040517f08c379a000000000000000000000000000000000000000000000000000000000815260040161165f906131c2565b60405180910390fd5b60008160060160006101000a81548160ff0219169083151502179055507f81eb7415440ff8e6c8e92606fd3b0e5e6a5c99ea90cdb63b41aec54e897312b3836040516116b49190613242565b60405180910390a1505050565b80600060018203815481106116d257fe5b906000526020600020906007020160060160019054906101000a900473ffffffffffffffffffffffffffffffffffffffff1673ffffffffffffffffffffffffffffffffffffffff163373ffffffffffffffffffffffffffffffffffffffff1614611771576040517f08c379a000000000000000000000000000000000000000000000000000000000815260040161176890613142565b60405180910390fd5b600080600184038154811061178257fe5b906000526020600020906007020190508060060160009054906101000a900460ff166117e3576040517f08c379a00000000000000000000000000000000000000000000000000000000081526004016117da90613122565b60405180910390fd5b60008160060160006101000a81548160ff021916908315150217905550505050565b6060806060600080805490509050600080905060008090505b82811015611859576000818154811061183357fe5b90600052602060002090600702016004018054905082019150808060010191505061181e565b5060608160405190808252806020026020018201604052801561188b5781602001602082028038833980820191505090505b5090506060826040519080825280602002602001820160405280156118c457816020015b60608152602001906001900390816118af5790505b5090506060836040519080825280602002602001820160405280156118f85781602001602082028038833980820191505090505b509050600080905060008090505b86811015611aaf57600080828154811061191c57fe5b9060005260206000209060070201905060008090505b8160040180549050811015611aa057816000015487858151811061195257fe5b60200260200101818152505081600401818154811061196d57fe5b906000526020600020018054600181600116156101000203166002900480601f016020809104026020016040519081016040528092919081815260200182805460018160011615610100020316600290048015611a0b5780601f106119e057610100808354040283529160200191611a0b565b820191906000526020600020905b8154815290600101906020018083116119ee57829003601f168201915b5050505050868581518110611a1c57fe5b60200260200101819052506001600083600001548152602001908152602001600020826004018281548110611a4d57fe5b90600052602060002001604051611a649190612ea5565b908152602001604051809103902054858581518110611a7f57fe5b60200260200101818152505083806001019450508080600101915050611932565b50508080600101915050611906565b50838383985098509850505050505050909192565b600360009054906101000a900473ffffffffffffffffffffffffffffffffffffffff1681565b6060600082118015611b0157506000805490508211155b611b40576040517f08c379a0000000000000000000000000000000000000000000000000000000008152600401611b37906131e2565b60405180910390fd5b6000806001840381548110611b5157fe5b9060005260206000209060070201905080600401805480602002602001604051908101604052809291908181526020016000905b82821015611c41578382906000526020600020018054600181600116156101000203166002900480601f016020809104026020016040519081016040528092919081815260200182805460018160011615610100020316600290048015611c2d5780601f10611c0257610100808354040283529160200191611c2d565b820191906000526020600020905b815481529060010190602001808311611c1057829003601f168201915b505050505081526020019060010190611b85565b50505050915050919050565b60006002600084815260200190815260200160002060008373ffffffffffffffffffffffffffffffffffffffff1673ffffffffffffffffffffffffffffffffffffffff16815260200190815260200160002060009054906101000a900460ff16905092915050565b600360009054906101000a900473ffffffffffffffffffffffffffffffffffffffff1673ffffffffffffffffffffffffffffffffffffffff163373ffffffffffffffffffffffffffffffffffffffff1614611d45576040517f08c379a0000000000000000000000000000000000000000000000000000000008152600401611d3c90613182565b60405180910390fd5b600073ffffffffffffffffffffffffffffffffffffffff168173ffffffffffffffffffffffffffffffffffffffff161415611db5576040517f08c379a0000000000000000000000000000000000000000000000000000000008152600401611dac90613102565b60405180910390fd5b80600360006101000a81548173ffffffffffffffffffffffffffffffffffffffff021916908373ffffffffffffffffffffffffffffffffffffffff16021790555050565b606080600083118015611e1157506000805490508311155b611e50576040517f08c379a0000000000000000000000000000000000000000000000000000000008152600401611e47906131e2565b60405180910390fd5b6000806001850381548110611e6157fe5b90600052602060002090600702019050600081600401805490509050606081604051908082528060200260200182016040528015611eae5781602001602082028038833980820191505090505b50905060008090505b82811015611f2c5760016000888152602001908152602001600020846004018281548110611ee157fe5b90600052602060002001604051611ef89190612ea5565b908152602001604051809103902054828281518110611f1357fe5b6020026020010181815250508080600101915050611eb7565b50826004018181805480602002602001604051908101604052809291908181526020016000905b8282101561200f578382906000526020600020018054600181600116156101000203166002900480601f016020809104026020016040519081016040528092919081815260200182805460018160011615610100020316600290048015611ffb5780601f10611fd057610100808354040283529160200191611ffb565b820191906000526020600020905b815481529060010190602001808311611fde57829003601f168201915b505050505081526020019060010190611f53565b50505050915094509450505050915091565b604051806101000160405280600081526020016060815260200160608152602001606081526020016060815260200160008152602001600015158152602001600073ffffffffffffffffffffffffffffffffffffffff1681525090565b828054600181600116156101000203166002900490600052602060002090601f016020900481019282601f106120bf57805160ff19168380011785556120ed565b828001600101855582156120ed579182015b828111156120ec5782518255916020019190600101906120d1565b5b5090506120fa919061215e565b5090565b82805482825590600052602060002090810192821561214d579160200282015b8281111561214c57825182908051906020019061213c92919061207e565b509160200191906001019061211e565b5b50905061215a9190612183565b5090565b61218091905b8082111561217c576000816000905550600101612164565b5090565b90565b6121ac91905b808211156121a8576000818161219f91906121af565b50600101612189565b5090565b90565b50805460018160011615610100020316600290046000825580601f106121d557506121f4565b601f0160209004906000526020600020908101906121f3919061215e565b5b50565b60008135905061220681613641565b92915050565b600082601f83011261221d57600080fd5b813561223061222b826133b4565b613387565b9150818183526020840193506020810190508360005b83811015612276578135860161225c8882612280565b845260208401935060208301925050600181019050612246565b5050505092915050565b600082601f83011261229157600080fd5b81356122a461229f826133dc565b613387565b915080825260208301602083018583830111156122c057600080fd5b6122cb8382846135ee565b50505092915050565b600082601f8301126122e557600080fd5b81356122f86122f382613408565b613387565b9150808252602083016020830185838301111561231457600080fd5b61231f8382846135ee565b50505092915050565b60008135905061233781613658565b92915050565b60006020828403121561234f57600080fd5b600061235d848285016121f7565b91505092915050565b600080600080600060a0868803121561237e57600080fd5b600086013567ffffffffffffffff81111561239857600080fd5b6123a4888289016122d4565b955050602086013567ffffffffffffffff8111156123c157600080fd5b6123cd888289016122d4565b945050604086013567ffffffffffffffff8111156123ea57600080fd5b6123f6888289016122d4565b935050606086013567ffffffffffffffff81111561241357600080fd5b61241f8882890161220c565b925050608061243088828901612328565b9150509295509295909350565b60006020828403121561244f57600080fd5b600061245d84828501612328565b91505092915050565b6000806040838503121561247957600080fd5b600061248785828601612328565b9250506020612498858286016121f7565b9150509250929050565b600080604083850312156124b557600080fd5b60006124c385828601612328565b925050602083013567ffffffffffffffff8111156124e057600080fd5b6124ec85828601612280565b9150509250929050565b6000806040838503121561250957600080fd5b600061251785828601612328565b925050602083013567ffffffffffffffff81111561253457600080fd5b612540858286016122d4565b9150509250929050565b600061255683836125b5565b60208301905092915050565b600061256e8383612762565b60208301905092915050565b600061258683836127ea565b905092915050565b600061259a8383612e70565b60208301905092915050565b6125af816135b8565b82525050565b6125be81613570565b82525050565b6125cd81613570565b82525050565b60006125de82613489565b6125e881856134ff565b93506125f383613434565b8060005b8381101561262457815161260b888261254a565b9750612616836134cb565b9250506001810190506125f7565b5085935050505092915050565b600061263c82613494565b6126468185613510565b935061265183613444565b8060005b838110156126825781516126698882612562565b9750612674836134d8565b925050600181019050612655565b5085935050505092915050565b600061269a8261349f565b6126a48185613521565b9350836020820285016126b685613454565b8060005b858110156126f257848403895281516126d3858261257a565b94506126de836134e5565b925060208a019950506001810190506126ba565b50829750879550505050505092915050565b600061270f826134aa565b6127198185613532565b935061272483613464565b8060005b8381101561275557815161273c888261258e565b9750612747836134f2565b925050600181019050612728565b5085935050505092915050565b61276b81613582565b82525050565b61277a81613582565b82525050565b600061278b826134c0565b6127958185613554565b93506127a58185602086016135fd565b6127ae81613630565b840191505092915050565b60006127c4826134c0565b6127ce8185613565565b93506127de8185602086016135fd565b80840191505092915050565b60006127f5826134b5565b6127ff8185613543565b935061280f8185602086016135fd565b61281881613630565b840191505092915050565b600061282e826134b5565b6128388185613554565b93506128488185602086016135fd565b61285181613630565b840191505092915050565b600081546001811660008114612879576001811461289e576128e2565b607f600283041661288a8187613565565b955060ff19831686528086019350506128e2565b600282046128ac8187613565565b95506128b785613474565b60005b828110156128d9578154818901526001820191506020810190506128ba565b82880195505050505b505092915050565b60006128f7603083613554565b91507fd092d180d0b5d0bcd18f20d0b3d0bed0bbd0bed181d0bed0b2d0b0d0bdd0b8d160008301527f8f20d0b8d181d182d0b5d0bad0bbd0be000000000000000000000000000000006020830152604082019050919050565b600061295d602683613554565b91507fd092d18b20d183d0b6d0b520d0bfd180d0bed0b3d0bed0bbd0bed181d0bed0b260008301527fd0b0d0bbd0b800000000000000000000000000000000000000000000000000006020830152604082019050919050565b60006129c3603b83613554565b91507fd09dd0b5d0b2d0b5d180d0bdd18bd0b920d0b0d0b4d180d0b5d18120d0bdd0be60008301527fd0b2d0bed0b3d0be20d0b2d0bbd0b0d0b4d0b5d0bbd18cd186d0b000000000006020830152604082019050919050565b6000612a29605483613554565b91507fd093d0bed0bbd0bed181d0bed0b2d0b0d0bdd0b8d0b520d183d0b6d0b520d0bf60008301527fd180d0b8d0bed181d182d0b0d0bdd0bed0b2d0bbd0b5d0bdd0be20d0b8d0bbd060208301527fb820d0b7d0b0d0b2d0b5d180d188d0b5d0bdd0be0000000000000000000000006040830152606082019050919050565b6000612ab5606c83613554565b91507fd0a2d0bed0bbd18cd0bad0be20d181d0bed0b7d0b4d0b0d182d0b5d0bbd18c2060008301527fd0b3d0bed0bbd0bed181d0bed0b2d0b0d0bdd0b8d18f20d0bcd0bed0b6d0b5d160208301527f8220d0b2d18bd0bfd0bed0bbd0bdd18fd182d18c20d18dd182d0be20d0b4d0b560408301527fd0b9d181d182d0b2d0b8d0b500000000000000000000000000000000000000006060830152608082019050919050565b6000612b67602c83613554565b91507fd093d0bed0bbd0bed181d0bed0b2d0b0d0bdd0b8d0b520d183d0b6d0b520d0b060008301527fd0bad182d0b8d0b2d0bdd0be00000000000000000000000000000000000000006020830152604082019050919050565b6000612bcd605383613554565b91507fd0a2d0bed0bbd18cd0bad0be20d0b2d0bbd0b0d0b4d0b5d0bbd0b5d18620d0bc60008301527fd0bed0b6d0b5d18220d0b2d18bd0bfd0bed0bbd0bdd18fd182d18c20d18dd18260208301527fd0be20d0b4d0b5d0b9d181d182d0b2d0b8d0b5000000000000000000000000006040830152606082019050919050565b6000612c59602a83613554565b91507fd093d0bed0bbd0bed181d0bed0b2d0b0d0bdd0b8d0b520d0bdd0b520d0b0d0ba60008301527fd182d0b8d0b2d0bdd0be000000000000000000000000000000000000000000006020830152604082019050919050565b6000612cbf603083613554565b91507fd093d0bed0bbd0bed181d0bed0b2d0b0d0bdd0b8d0b520d183d0b6d0b520d0b760008301527fd0b0d0b2d0b5d180d188d0b5d0bdd0be000000000000000000000000000000006020830152604082019050919050565b6000612d25602a83613554565b91507fd09dd0b5d0b2d0b5d180d0bdd18bd0b920494420d0b3d0bed0bbd0bed181d0be60008301527fd0b2d0b0d0bdd0b8d18f000000000000000000000000000000000000000000006020830152604082019050919050565b6000612d8b603b83613554565b91507fd09ed0bfd186d0b8d18f20d0b3d0bed0bbd0bed181d0bed0b2d0b0d0bdd0b8d160008301527f8f20d0bdd0b520d181d183d189d0b5d181d182d0b2d183d0b5d18200000000006020830152604082019050919050565b6000612df1604583613554565b91507fd094d0b0d182d0b020d0b7d0b0d0b2d0b5d180d188d0b5d0bdd0b8d18f20d0b460008301527fd0bed0bbd0b6d0bdd0b020d0b1d18bd182d18c20d0b220d0b1d183d0b4d183d160208301527f89d0b5d0bc0000000000000000000000000000000000000000000000000000006040830152606082019050919050565b612e79816135ae565b82525050565b612e88816135ae565b82525050565b6000612e9a82846127b9565b915081905092915050565b6000612eb1828461285c565b915081905092915050565b6000602082019050612ed160008301846125c4565b92915050565b60006020820190508181036000830152612ef1818461268f565b905092915050565b60006040820190508181036000830152612f13818561268f565b90508181036020830152612f278184612704565b90509392505050565b600060e0820190508181036000830152612f4a818a612704565b90508181036020830152612f5e818961268f565b90508181036040830152612f72818861268f565b90508181036060830152612f86818761268f565b90508181036080830152612f9a8186612704565b905081810360a0830152612fae8185612631565b905081810360c0830152612fc281846125d3565b905098975050505050505050565b60006060820190508181036000830152612fea8186612704565b90508181036020830152612ffe818561268f565b905081810360408301526130128184612704565b9050949350505050565b60006020820190506130316000830184612771565b92915050565b600060e0820190508181036000830152613051818a612780565b905081810360208301526130658189612780565b905081810360408301526130798188612780565b9050818103606083015261308d818761268f565b905061309c6080830186612e7f565b6130a960a0830185612771565b6130b660c08301846125c4565b98975050505050505050565b600060208201905081810360008301526130db816128ea565b9050919050565b600060208201905081810360008301526130fb81612950565b9050919050565b6000602082019050818103600083015261311b816129b6565b9050919050565b6000602082019050818103600083015261313b81612a1c565b9050919050565b6000602082019050818103600083015261315b81612aa8565b9050919050565b6000602082019050818103600083015261317b81612b5a565b9050919050565b6000602082019050818103600083015261319b81612bc0565b9050919050565b600060208201905081810360008301526131bb81612c4c565b9050919050565b600060208201905081810360008301526131db81612cb2565b9050919050565b600060208201905081810360008301526131fb81612d18565b9050919050565b6000602082019050818103600083015261321b81612d7e565b9050919050565b6000602082019050818103600083015261323b81612de4565b9050919050565b60006020820190506132576000830184612e7f565b92915050565b60006060820190506132726000830186612e7f565b61327f60208301856125a6565b81810360408301526132918184612780565b9050949350505050565b600060a0820190506132b06000830188612e7f565b81810360208301526132c28187612780565b905081810360408301526132d68186612780565b905081810360608301526132ea8185612780565b90506132f96080830184612e7f565b9695505050505050565b600060e082019050613318600083018a612e7f565b818103602083015261332a8189612823565b9050818103604083015261333e8188612823565b905081810360608301526133528187612823565b90506133616080830186612e7f565b61336e60a0830185612771565b61337b60c08301846125c4565b98975050505050505050565b6000604051905081810181811067ffffffffffffffff821117156133aa57600080fd5b8060405250919050565b600067ffffffffffffffff8211156133cb57600080fd5b602082029050602081019050919050565b600067ffffffffffffffff8211156133f357600080fd5b601f19601f8301169050602081019050919050565b600067ffffffffffffffff82111561341f57600080fd5b601f19601f8301169050602081019050919050565b6000819050602082019050919050565b6000819050602082019050919050565b6000819050602082019050919050565b6000819050602082019050919050565b60008190508160005260206000209050919050565b600081519050919050565b600081519050919050565b600081519050919050565b600081519050919050565b600081519050919050565b600081519050919050565b6000602082019050919050565b6000602082019050919050565b6000602082019050919050565b6000602082019050919050565b600082825260208201905092915050565b600082825260208201905092915050565b600082825260208201905092915050565b600082825260208201905092915050565b600082825260208201905092915050565b600082825260208201905092915050565b600081905092915050565b600061357b8261358e565b9050919050565b60008115159050919050565b600073ffffffffffffffffffffffffffffffffffffffff82169050919050565b6000819050919050565b60006135c3826135ca565b9050919050565b60006135d5826135dc565b9050919050565b60006135e78261358e565b9050919050565b82818337600083830152505050565b60005b8381101561361b578082015181840152602081019050613600565b8381111561362a576000848401525b50505050565b6000601f19601f8301169050919050565b61364a81613570565b811461365557600080fd5b50565b613661816135ae565b811461366c57600080fd5b5056fea365627a7a72315820a4f36ea9c0cefec4a8fb8a500948de0ac9603e3f46809f74855c8403f574318b6c6578706572696d656e74616cf564736f6c63430005100040",
  "source": "// SPDX-License-Identifier: UNLICENSED \r\npragma solidity >=0.4.22 <0.9.0;\r\npragma experimental ABIEncoderV2;\r\n\r\ncontract Voting {\r\n    struct VotingSession {\r\n        uint id;\r\n        string name;\r\n        string description;\r\n        string category;\r\n        string[] options;\r\n        uint endDate;\r\n        bool isActive;\r\n        address creator;\r\n    }\r\n\r\n    VotingSession[] public votingSessions;\r\n    mapping(uint => mapping(string => uint)) public votes; //    \r\n    mapping(uint => mapping(address => bool)) public hasVoted; //   ,   \r\n    address public owner;\r\n\r\n    event VotingCreated(uint id, string name, string description, string category, uint endDate);\r\n    event Voted(uint sessionId, address voter, string option);\r\n    event VotingEnded(uint id);\r\n\r\n    modifier onlyOwner() {\r\n        require(msg.sender == owner, \"     \");\r\n        _;\r\n    }\r\n\r\n    modifier onlyCreator(uint _id) {\r\n        require(msg.sender == votingSessions[_id - 1].creator, \"      \");\r\n        _;\r\n    }\r\n\r\n    modifier activeVoting(uint _id) {\r\n        require(votingSessions[_id - 1].isActive, \"  \");\r\n        require(block.timestamp < votingSessions[_id - 1].endDate, \"  \");\r\n        _;\r\n    }\r\n\r\n    constructor() public {\r\n        owner = msg.sender;\r\n    }\r\n\r\n    function createVoting(string memory _name, string memory _description, string memory _category, string[] memory _options, uint _endDate) public {\r\n        require(_endDate > block.timestamp, \"     \");\r\n\r\n        VotingSession memory newVoting = VotingSession({\r\n            id: votingSessions.length + 1,\r\n            name: _name,\r\n            description: _description,\r\n            category: _category,\r\n            options: _options,\r\n            endDate: _endDate,\r\n            isActive: true,\r\n            creator: msg.sender\r\n        });\r\n\r\n        votingSessions.push(newVoting);\r\n        emit VotingCreated(newVoting.id, _name, _description, _category, _endDate);\r\n    }\r\n\r\n    function getVotingSession(uint _id) public view returns (string memory, string memory, string memory, string[] memory, uint, bool, address) {\r\n        require(_id > 0 && _id <= votingSessions.length, \" ID \");\r\n        VotingSession storage session = votingSessions[_id - 1];\r\n        return (session.name, session.description, session.category, session.options, session.endDate, session.isActive, session.creator);\r\n    }\r\n\r\n    function getVotingSessions() public view returns (uint[] memory, string[] memory, string[] memory, string[] memory, uint[] memory, bool[] memory, address[] memory) {\r\n        uint length = votingSessions.length;\r\n\r\n        uint[] memory ids = new uint[](length);\r\n        string[] memory names = new string[](length);\r\n        string[] memory descriptions = new string[](length);\r\n        string[] memory categories = new string[](length);\r\n        uint[] memory endDates = new uint[](length);\r\n        bool[] memory statuses = new bool[](length);\r\n        address[] memory creators = new address[](length);\r\n\r\n        for (uint i = 0; i < length; i++) {\r\n            VotingSession storage session = votingSessions[i];\r\n            ids[i] = session.id;\r\n            names[i] = session.name;\r\n            descriptions[i] = session.description;\r\n            categories[i] = session.category;\r\n            endDates[i] = session.endDate;\r\n            statuses[i] = session.isActive;\r\n            creators[i] = session.creator;\r\n        }\r\n\r\n        return (ids, names, descriptions, categories, endDates, statuses, creators);\r\n    }\r\n\r\n    function getVotingSessionOptions(uint _id) public view returns (string[] memory) {\r\n        require(_id > 0 && _id <= votingSessions.length, \" ID \");\r\n        VotingSession storage session = votingSessions[_id - 1];\r\n        return session.options;\r\n    }\r\n\r\n    function vote(uint _id, string memory _option) public activeVoting(_id) {\r\n        VotingSession storage session = votingSessions[_id - 1];\r\n        require(!hasVoted[_id][msg.sender], \"  \");\r\n\r\n        // ,   \r\n        bool optionExists = false;\r\n        for (uint i = 0; i < session.options.length; i++) {\r\n            if (keccak256(abi.encodePacked(session.options[i])) == keccak256(abi.encodePacked(_option))) {\r\n                optionExists = true;\r\n                break;\r\n            }\r\n        }\r\n        require(optionExists, \"   \");\r\n\r\n        votes[_id][_option]++;\r\n        hasVoted[_id][msg.sender] = true;\r\n        emit Voted(_id, msg.sender, _option);\r\n    }\r\n\r\n    function endVoting(uint _id) public onlyCreator(_id) {\r\n        VotingSession storage session = votingSessions[_id - 1];\r\n        require(session.isActive, \"  \");\r\n\r\n        session.isActive = false;\r\n        emit VotingEnded(_id);\r\n    }\r\n\r\n    function getVotes(uint _id) public view returns (string[] memory, uint[] memory) {\r\n        require(_id > 0 && _id <= votingSessions.length, \" ID \");\r\n        VotingSession storage session = votingSessions[_id - 1];\r\n\r\n        uint optionsLength = session.options.length;\r\n        uint[] memory voteCounts = new uint[](optionsLength);\r\n\r\n        for (uint i = 0; i < optionsLength; i++) {\r\n            voteCounts[i] = votes[_id][session.options[i]];\r\n        }\r\n\r\n        return (session.options, voteCounts);\r\n    }\r\n\r\n    function getAllVotes() public view returns (uint[] memory, string[] memory, uint[] memory) {\r\n        uint sessionsLength = votingSessions.length;\r\n        uint totalOptions = 0;\r\n\r\n        for (uint i = 0; i < sessionsLength; i++) {\r\n            totalOptions += votingSessions[i].options.length;\r\n        }\r\n\r\n        uint[] memory sessionIds = new uint[](totalOptions);\r\n        string[] memory optionNames = new string[](totalOptions);\r\n        uint[] memory voteCounts = new uint[](totalOptions);\r\n\r\n        uint index = 0;\r\n        for (uint i = 0; i < sessionsLength; i++) {\r\n            VotingSession storage session = votingSessions[i];\r\n            for (uint j = 0; j < session.options.length; j++) {\r\n                sessionIds[index] = session.id;\r\n                optionNames[index] = session.options[j];\r\n                voteCounts[index] = votes[session.id][session.options[j]];\r\n                index++;\r\n            }\r\n        }\r\n\r\n        return (sessionIds, optionNames, voteCounts);\r\n    }\r\n\r\n    function pauseVoting(uint _id) public onlyCreator(_id) {\r\n        VotingSession storage session = votingSessions[_id - 1];\r\n        require(session.isActive, \"    \");\r\n\r\n        session.isActive = false;\r\n    }\r\n\r\n    function resumeVoting(uint _id) public onlyCreator(_id) {\r\n        VotingSession storage session = votingSessions[_id - 1];\r\n        require(!session.isActive, \"  \");\r\n\r\n        session.isActive = true;\r\n    }\r\n\r\n    function transferOwnership(address newOwner) public onlyOwner {\r\n        require(newOwner != address(0), \"   \");\r\n        owner = newOwner;\r\n    }\r\n    function hasUserVoted(uint _id, address _user) public view returns (bool) {\r\n        return hasVoted[_id][_user];\r\n    }\r\n}",
  "sourcePath": "C:\\Users\\userlenny\\Desktop\\dip\\blockchain\\contracts\\contracts\\Voting.sol",
  "compiler": {
    "name": "solc",
    "version": "0.5.16+commit.9c3226ce.Emscripten.clang"
  },
  "schemaVersion": "3.4.16",
  "updatedAt": "2024-05-23T16:01:56.927Z",
  "networkType": "ethereum",
  "devdoc": {
    "methods": {}
  },
  "userdoc": {
    "methods": {}
  }
}