{
  "contractName": "Voting",
  "abi": [
    {
      "constant": true,
      "inputs": [
        {
          "internalType": "uint256",
          "name": "",
          "type": "uint256"
        },
        {
          "internalType": "string",
          "name": "",
          "type": "string"
        }
      ],
      "name": "votes",
      "outputs": [
        {
          "internalType": "uint256",
          "name": "",
          "type": "uint256"
        }
      ],
      "payable": false,
      "stateMutability": "view",
      "type": "function"
    },
    {
      "constant": true,
      "inputs": [
        {
          "internalType": "uint256",
          "name": "",
          "type": "uint256"
        }
      ],
      "name": "votingSessions",
      "outputs": [
        {
          "internalType": "uint256",
          "name": "id",
          "type": "uint256"
        },
        {
          "internalType": "string",
          "name": "name",
          "type": "string"
        },
        {
          "internalType": "uint256",
          "name": "endDate",
          "type": "uint256"
        },
        {
          "internalType": "bool",
          "name": "isActive",
          "type": "bool"
        }
      ],
      "payable": false,
      "stateMutability": "view",
      "type": "function"
    },
    {
      "constant": false,
      "inputs": [
        {
          "internalType": "string",
          "name": "_name",
          "type": "string"
        },
        {
          "internalType": "string[]",
          "name": "_options",
          "type": "string[]"
        },
        {
          "internalType": "uint256",
          "name": "_endDate",
          "type": "uint256"
        }
      ],
      "name": "createVoting",
      "outputs": [],
      "payable": false,
      "stateMutability": "nonpayable",
      "type": "function"
    },
    {
      "constant": true,
      "inputs": [
        {
          "internalType": "uint256",
          "name": "_id",
          "type": "uint256"
        }
      ],
      "name": "getVotingSession",
      "outputs": [
        {
          "internalType": "string",
          "name": "",
          "type": "string"
        },
        {
          "internalType": "string[]",
          "name": "",
          "type": "string[]"
        },
        {
          "internalType": "uint256",
          "name": "",
          "type": "uint256"
        },
        {
          "internalType": "bool",
          "name": "",
          "type": "bool"
        }
      ],
      "payable": false,
      "stateMutability": "view",
      "type": "function"
    },
    {
      "constant": true,
      "inputs": [],
      "name": "getVotingSessions",
      "outputs": [
        {
          "internalType": "uint256[]",
          "name": "",
          "type": "uint256[]"
        },
        {
          "internalType": "string[]",
          "name": "",
          "type": "string[]"
        },
        {
          "internalType": "uint256[]",
          "name": "",
          "type": "uint256[]"
        },
        {
          "internalType": "bool[]",
          "name": "",
          "type": "bool[]"
        }
      ],
      "payable": false,
      "stateMutability": "view",
      "type": "function"
    },
    {
      "constant": false,
      "inputs": [
        {
          "internalType": "uint256",
          "name": "_id",
          "type": "uint256"
        },
        {
          "internalType": "string",
          "name": "_option",
          "type": "string"
        }
      ],
      "name": "vote",
      "outputs": [],
      "payable": false,
      "stateMutability": "nonpayable",
      "type": "function"
    },
    {
      "constant": true,
      "inputs": [
        {
          "internalType": "uint256",
          "name": "_id",
          "type": "uint256"
        }
      ],
      "name": "getVotes",
      "outputs": [
        {
          "internalType": "string[]",
          "name": "",
          "type": "string[]"
        },
        {
          "internalType": "uint256[]",
          "name": "",
          "type": "uint256[]"
        }
      ],
      "payable": false,
      "stateMutability": "view",
      "type": "function"
    },
    {
      "constant": true,
      "inputs": [],
      "name": "getAllVotes",
      "outputs": [
        {
          "internalType": "uint256[]",
          "name": "",
          "type": "uint256[]"
        },
        {
          "internalType": "string[]",
          "name": "",
          "type": "string[]"
        },
        {
          "internalType": "uint256[]",
          "name": "",
          "type": "uint256[]"
        }
      ],
      "payable": false,
      "stateMutability": "view",
      "type": "function"
    }
  ],
  "bytecode": "0x608060405234801561001057600080fd5b50611de8806100206000396000f3fe608060405234801561001057600080fd5b50600436106100885760003560e01c8063241084751161005b5780632410847514610144578063512ec77f14610160578063851b6ef21461017c578063ff9810991461019c57610088565b806303e9630f1461008d5780631186eb7c146100ae57806314f3f349146100e15780631943c90b14610111575b600080fd5b6100956101cd565b6040516100a594939291906119ba565b60405180910390f35b6100c860048036036100c391908101906112f9565b610421565b6040516100d89493929190611b29565b60405180910390f35b6100fb60048036036100f69190810190611322565b610503565b6040516101089190611b0e565b60405180910390f35b61012b600480360361012691908101906112f9565b61053e565b60405161013b9493929190611a1b565b60405180910390f35b61015e60048036036101599190810190611376565b610767565b005b61017a6004803603610175919081019061127a565b610995565b005b610184610ab8565b6040516101939392919061196e565b60405180910390f35b6101b660048036036101b191908101906112f9565b610d77565b6040516101c4929190611937565b60405180910390f35b60608060608060008080549050905060608160405190808252806020026020018201604052801561020d5781602001602082028038833980820191505090505b50905060608260405190808252806020026020018201604052801561024657816020015b60608152602001906001900390816102315790505b50905060608360405190808252806020026020018201604052801561027a5781602001602082028038833980820191505090505b5090506060846040519080825280602002602001820160405280156102ae5781602001602082028038833980820191505090505b50905060008090505b858110156104095760008082815481106102cd57fe5b9060005260206000209060050201905080600001548683815181106102ee57fe5b602002602001018181525050806001018054600181600116156101000203166002900480601f0160208091040260200160405190810160405280929190818152602001828054600181600116156101000203166002900480156103925780601f1061036757610100808354040283529160200191610392565b820191906000526020600020905b81548152906001019060200180831161037557829003601f168201915b50505050508583815181106103a357fe5b602002602001018190525080600301548483815181106103bf57fe5b6020026020010181815250508060040160009054906101000a900460ff168383815181106103e957fe5b6020026020010190151590811515815250505080806001019150506102b7565b50838383839850985098509850505050505090919293565b6000818154811061042e57fe5b9060005260206000209060050201600091509050806000015490806001018054600181600116156101000203166002900480601f0160208091040260200160405190810160405280929190818152602001828054600181600116156101000203166002900480156104e05780601f106104b5576101008083540402835291602001916104e0565b820191906000526020600020905b8154815290600101906020018083116104c357829003601f168201915b5050505050908060030154908060040160009054906101000a900460ff16905084565b600160205281600052604060002081805160208101820180518482526020830160208501208183528095505050505050600091509150505481565b60608060008060008511801561055957506000805490508511155b610598576040517f08c379a000000000000000000000000000000000000000000000000000000000815260040161058f90611aae565b60405180910390fd5b60008060018703815481106105a957fe5b90600052602060002090600502019050806001018160020182600301548360040160009054906101000a900460ff16838054600181600116156101000203166002900480601f01602080910402602001604051908101604052809291908181526020018280546001816001161561010002031660029004801561066d5780601f106106425761010080835404028352916020019161066d565b820191906000526020600020905b81548152906001019060200180831161065057829003601f168201915b5050505050935082805480602002602001604051908101604052809291908181526020016000905b82821015610751578382906000526020600020018054600181600116156101000203166002900480601f01602080910402602001604051908101604052809291908181526020018280546001816001161561010002031660029004801561073d5780601f106107125761010080835404028352916020019161073d565b820191906000526020600020905b81548152906001019060200180831161072057829003601f168201915b505050505081526020019060010190610695565b5050505092509450945094509450509193509193565b60008211801561077c57506000805490508211155b6107bb576040517f08c379a00000000000000000000000000000000000000000000000000000000081526004016107b290611aae565b60405180910390fd5b60008060018403815481106107cc57fe5b906000526020600020906005020190508060040160009054906101000a900460ff1661082d576040517f08c379a000000000000000000000000000000000000000000000000000000000815260040161082490611a8e565b60405180910390fd5b80600301544210610873576040517f08c379a000000000000000000000000000000000000000000000000000000000815260040161086a90611a6e565b60405180910390fd5b600080905060008090505b826002018054905081101561090f578360405160200161089e9190611909565b604051602081830303815290604052805190602001208360020182815481106108c357fe5b906000526020600020016040516020016108dd9190611920565b604051602081830303815290604052805190602001201415610902576001915061090f565b808060010191505061087e565b5080610950576040517f08c379a000000000000000000000000000000000000000000000000000000000815260040161094790611ace565b60405180910390fd5b60016000858152602001908152602001600020836040516109719190611909565b90815260200160405180910390206000815480929190600101919050555050505050565b4281116109d7576040517f08c379a00000000000000000000000000000000000000000000000000000000081526004016109ce90611aee565b60405180910390fd5b6109df610f9f565b6040518060a00160405280600160008054905001815260200185815260200184815260200183815260200160011515815250905060008190806001815401808255809150509060018203906000526020600020906005020160009091929091909150600082015181600001556020820151816001019080519060200190610a67929190610fd0565b506040820151816002019080519060200190610a84929190611050565b506060820151816003015560808201518160040160006101000a81548160ff02191690831515021790555050505050505050565b6060806060600080805490509050600080905060008090505b82811015610b0c5760008181548110610ae657fe5b906000526020600020906005020160020180549050820191508080600101915050610ad1565b50606081604051908082528060200260200182016040528015610b3e5781602001602082028038833980820191505090505b509050606082604051908082528060200260200182016040528015610b7757816020015b6060815260200190600190039081610b625790505b509050606083604051908082528060200260200182016040528015610bab5781602001602082028038833980820191505090505b509050600080905060008090505b86811015610d62576000808281548110610bcf57fe5b9060005260206000209060050201905060008090505b8160020180549050811015610d53578160000154878581518110610c0557fe5b602002602001018181525050816002018181548110610c2057fe5b906000526020600020018054600181600116156101000203166002900480601f016020809104026020016040519081016040528092919081815260200182805460018160011615610100020316600290048015610cbe5780601f10610c9357610100808354040283529160200191610cbe565b820191906000526020600020905b815481529060010190602001808311610ca157829003601f168201915b5050505050868581518110610ccf57fe5b60200260200101819052506001600083600001548152602001908152602001600020826002018281548110610d0057fe5b90600052602060002001604051610d179190611920565b908152602001604051809103902054858581518110610d3257fe5b60200260200101818152505083806001019450508080600101915050610be5565b50508080600101915050610bb9565b50838383985098509850505050505050909192565b606080600083118015610d8f57506000805490508311155b610dce576040517f08c379a0000000000000000000000000000000000000000000000000000000008152600401610dc590611aae565b60405180910390fd5b6000806001850381548110610ddf57fe5b90600052602060002090600502019050600081600201805490509050606081604051908082528060200260200182016040528015610e2c5781602001602082028038833980820191505090505b50905060008090505b82811015610eaa5760016000888152602001908152602001600020846002018281548110610e5f57fe5b90600052602060002001604051610e769190611920565b908152602001604051809103902054828281518110610e9157fe5b6020026020010181815250508080600101915050610e35565b50826002018181805480602002602001604051908101604052809291908181526020016000905b82821015610f8d578382906000526020600020018054600181600116156101000203166002900480601f016020809104026020016040519081016040528092919081815260200182805460018160011615610100020316600290048015610f795780601f10610f4e57610100808354040283529160200191610f79565b820191906000526020600020905b815481529060010190602001808311610f5c57829003601f168201915b505050505081526020019060010190610ed1565b50505050915094509450505050915091565b6040518060a00160405280600081526020016060815260200160608152602001600081526020016000151581525090565b828054600181600116156101000203166002900490600052602060002090601f016020900481019282601f1061101157805160ff191683800117855561103f565b8280016001018555821561103f579182015b8281111561103e578251825591602001919060010190611023565b5b50905061104c91906110b0565b5090565b82805482825590600052602060002090810192821561109f579160200282015b8281111561109e57825182908051906020019061108e929190610fd0565b5091602001919060010190611070565b5b5090506110ac91906110d5565b5090565b6110d291905b808211156110ce5760008160009055506001016110b6565b5090565b90565b6110fe91905b808211156110fa57600081816110f19190611101565b506001016110db565b5090565b90565b50805460018160011615610100020316600290046000825580601f106111275750611146565b601f01602090049060005260206000209081019061114591906110b0565b5b50565b600082601f83011261115a57600080fd5b813561116d61116882611ba2565b611b75565b9150818183526020840193506020810190508360005b838110156111b3578135860161119988826111bd565b845260208401935060208301925050600181019050611183565b5050505092915050565b600082601f8301126111ce57600080fd5b81356111e16111dc82611bca565b611b75565b915080825260208301602083018583830111156111fd57600080fd5b611208838284611d3b565b50505092915050565b600082601f83011261122257600080fd5b813561123561123082611bf6565b611b75565b9150808252602083016020830185838301111561125157600080fd5b61125c838284611d3b565b50505092915050565b60008135905061127481611d8e565b92915050565b60008060006060848603121561128f57600080fd5b600084013567ffffffffffffffff8111156112a957600080fd5b6112b586828701611211565b935050602084013567ffffffffffffffff8111156112d257600080fd5b6112de86828701611149565b92505060406112ef86828701611265565b9150509250925092565b60006020828403121561130b57600080fd5b600061131984828501611265565b91505092915050565b6000806040838503121561133557600080fd5b600061134385828601611265565b925050602083013567ffffffffffffffff81111561136057600080fd5b61136c858286016111bd565b9150509250929050565b6000806040838503121561138957600080fd5b600061139785828601611265565b925050602083013567ffffffffffffffff8111156113b457600080fd5b6113c085828601611211565b9150509250929050565b60006113d6838361153f565b60208301905092915050565b60006113ee83836115c7565b905092915050565b600061140283836118eb565b60208301905092915050565b600061141982611c67565b6114238185611cc5565b935061142e83611c22565b8060005b8381101561145f57815161144688826113ca565b975061145183611c9e565b925050600181019050611432565b5085935050505092915050565b600061147782611c72565b6114818185611cd6565b93508360208202850161149385611c32565b8060005b858110156114cf57848403895281516114b085826113e2565b94506114bb83611cab565b925060208a01995050600181019050611497565b50829750879550505050505092915050565b60006114ec82611c7d565b6114f68185611ce7565b935061150183611c42565b8060005b8381101561153257815161151988826113f6565b975061152483611cb8565b925050600181019050611505565b5085935050505092915050565b61154881611d25565b82525050565b61155781611d25565b82525050565b600061156882611c93565b6115728185611d09565b9350611582818560208601611d4a565b61158b81611d7d565b840191505092915050565b60006115a182611c93565b6115ab8185611d1a565b93506115bb818560208601611d4a565b80840191505092915050565b60006115d282611c88565b6115dc8185611cf8565b93506115ec818560208601611d4a565b6115f581611d7d565b840191505092915050565b600061160b82611c88565b6116158185611d09565b9350611625818560208601611d4a565b61162e81611d7d565b840191505092915050565b600081546001811660008114611656576001811461167b576116bf565b607f60028304166116678187611d1a565b955060ff19831686528086019350506116bf565b600282046116898187611d1a565b955061169485611c52565b60005b828110156116b657815481890152600182019150602081019050611697565b82880195505050505b505092915050565b60006116d4603083611d09565b91507fd092d180d0b5d0bcd18f20d0b3d0bed0bbd0bed181d0bed0b2d0b0d0bdd0b8d160008301527f8f20d0b8d181d182d0b5d0bad0bbd0be000000000000000000000000000000006020830152604082019050919050565b600061173a602983611d09565b91507fd093d0bed0bbd0bed181d0bed0b2d0b0d0bdd0b8d0b520d0b7d0b0d0b2d0b5d160008301527f80d188d0b5d0bdd0be00000000000000000000000000000000000000000000006020830152604082019050919050565b60006117a0602a83611d09565b91507fd09dd0b5d0b2d0b5d180d0bdd18bd0b920494420d0b3d0bed0bbd0bed181d0be60008301527fd0b2d0b0d0bdd0b8d18f000000000000000000000000000000000000000000006020830152604082019050919050565b6000611806603b83611d09565b91507fd09ed0bfd186d0b8d18f20d0b3d0bed0bbd0bed181d0bed0b2d0b0d0bdd0b8d160008301527f8f20d0bdd0b520d181d183d189d0b5d181d182d0b2d183d0b5d18200000000006020830152604082019050919050565b600061186c604583611d09565b91507fd094d0b0d182d0b020d0b7d0b0d0b2d0b5d180d188d0b5d0bdd0b8d18f20d0b460008301527fd0bed0bbd0b6d0bdd0b020d0b1d18bd182d18c20d0b220d0b1d183d0b4d183d160208301527f89d0b5d0bc0000000000000000000000000000000000000000000000000000006040830152606082019050919050565b6118f481611d31565b82525050565b61190381611d31565b82525050565b60006119158284611596565b915081905092915050565b600061192c8284611639565b915081905092915050565b60006040820190508181036000830152611951818561146c565b9050818103602083015261196581846114e1565b90509392505050565b6000606082019050818103600083015261198881866114e1565b9050818103602083015261199c818561146c565b905081810360408301526119b081846114e1565b9050949350505050565b600060808201905081810360008301526119d481876114e1565b905081810360208301526119e8818661146c565b905081810360408301526119fc81856114e1565b90508181036060830152611a10818461140e565b905095945050505050565b60006080820190508181036000830152611a35818761155d565b90508181036020830152611a49818661146c565b9050611a5860408301856118fa565b611a65606083018461154e565b95945050505050565b60006020820190508181036000830152611a87816116c7565b9050919050565b60006020820190508181036000830152611aa78161172d565b9050919050565b60006020820190508181036000830152611ac781611793565b9050919050565b60006020820190508181036000830152611ae7816117f9565b9050919050565b60006020820190508181036000830152611b078161185f565b9050919050565b6000602082019050611b2360008301846118fa565b92915050565b6000608082019050611b3e60008301876118fa565b8181036020830152611b508186611600565b9050611b5f60408301856118fa565b611b6c606083018461154e565b95945050505050565b6000604051905081810181811067ffffffffffffffff82111715611b9857600080fd5b8060405250919050565b600067ffffffffffffffff821115611bb957600080fd5b602082029050602081019050919050565b600067ffffffffffffffff821115611be157600080fd5b601f19601f8301169050602081019050919050565b600067ffffffffffffffff821115611c0d57600080fd5b601f19601f8301169050602081019050919050565b6000819050602082019050919050565b6000819050602082019050919050565b6000819050602082019050919050565b60008190508160005260206000209050919050565b600081519050919050565b600081519050919050565b600081519050919050565b600081519050919050565b600081519050919050565b6000602082019050919050565b6000602082019050919050565b6000602082019050919050565b600082825260208201905092915050565b600082825260208201905092915050565b600082825260208201905092915050565b600082825260208201905092915050565b600082825260208201905092915050565b600081905092915050565b60008115159050919050565b6000819050919050565b82818337600083830152505050565b60005b83811015611d68578082015181840152602081019050611d4d565b83811115611d77576000848401525b50505050565b6000601f19601f8301169050919050565b611d9781611d31565b8114611da257600080fd5b5056fea365627a7a72315820758e9279f03bdc8adc4db44b5df19f7c5eaa58caf96ed0ad46a3b9fbdb6560a86c6578706572696d656e74616cf564736f6c63430005100040",
  "source": "// SPDX-License-Identifier: UNLICENSED \r\npragma solidity >=0.4.22 <0.9.0;\r\npragma experimental ABIEncoderV2;\r\n\r\ncontract Voting {\r\n    struct VotingSession {\r\n        uint id;\r\n        string name;\r\n        string[] options;\r\n        uint endDate;\r\n        bool isActive;\r\n    }\r\n\r\n    VotingSession[] public votingSessions;\r\n    mapping(uint => mapping(string => uint)) public votes; //    \r\n\r\n    function createVoting(string memory _name, string[] memory _options, uint _endDate) public {\r\n        require(_endDate > block.timestamp, \"     \");\r\n\r\n        VotingSession memory newVoting = VotingSession({\r\n            id: votingSessions.length + 1,\r\n            name: _name,\r\n            options: _options,\r\n            endDate: _endDate,\r\n            isActive: true\r\n        });\r\n\r\n        votingSessions.push(newVoting);\r\n    }\r\n\r\n    function getVotingSession(uint _id) public view returns (string memory, string[] memory, uint, bool) {\r\n        require(_id > 0 && _id <= votingSessions.length, \" ID \");\r\n        VotingSession storage session = votingSessions[_id - 1];\r\n        return (session.name, session.options, session.endDate, session.isActive);\r\n    }\r\n\r\n    function getVotingSessions() public view returns (uint[] memory, string[] memory, uint[] memory, bool[] memory) {\r\n        uint length = votingSessions.length;\r\n\r\n        uint[] memory ids = new uint[](length);\r\n        string[] memory names = new string[](length);\r\n        uint[] memory endDates = new uint[](length);\r\n        bool[] memory statuses = new bool[](length);\r\n\r\n        for (uint i = 0; i < length; i++) {\r\n            VotingSession storage session = votingSessions[i];\r\n            ids[i] = session.id;\r\n            names[i] = session.name;\r\n            endDates[i] = session.endDate;\r\n            statuses[i] = session.isActive;\r\n        }\r\n\r\n        return (ids, names, endDates, statuses);\r\n    }\r\n\r\n    function vote(uint _id, string memory _option) public {\r\n        require(_id > 0 && _id <= votingSessions.length, \" ID \");\r\n        VotingSession storage session = votingSessions[_id - 1];\r\n        require(session.isActive, \" \");\r\n        require(block.timestamp < session.endDate, \"  \");\r\n\r\n        // ,   \r\n        bool optionExists = false;\r\n        for (uint i = 0; i < session.options.length; i++) {\r\n            if (keccak256(abi.encodePacked(session.options[i])) == keccak256(abi.encodePacked(_option))) {\r\n                optionExists = true;\r\n                break;\r\n            }\r\n        }\r\n        require(optionExists, \"   \");\r\n\r\n        votes[_id][_option]++;\r\n    }\r\n\r\n    function getVotes(uint _id) public view returns (string[] memory, uint[] memory) {\r\n        require(_id > 0 && _id <= votingSessions.length, \" ID \");\r\n        VotingSession storage session = votingSessions[_id - 1];\r\n\r\n        uint optionsLength = session.options.length;\r\n        uint[] memory voteCounts = new uint[](optionsLength);\r\n\r\n        for (uint i = 0; i < optionsLength; i++) {\r\n            voteCounts[i] = votes[_id][session.options[i]];\r\n        }\r\n\r\n        return (session.options, voteCounts);\r\n    }\r\n\r\n    //       \r\n    function getAllVotes() public view returns (uint[] memory, string[] memory, uint[] memory) {\r\n        uint sessionsLength = votingSessions.length;\r\n        uint totalOptions = 0;\r\n\r\n        for (uint i = 0; i < sessionsLength; i++) {\r\n            totalOptions += votingSessions[i].options.length;\r\n        }\r\n\r\n        uint[] memory sessionIds = new uint[](totalOptions);\r\n        string[] memory optionNames = new string[](totalOptions);\r\n        uint[] memory voteCounts = new uint[](totalOptions);\r\n\r\n        uint index = 0;\r\n        for (uint i = 0; i < sessionsLength; i++) {\r\n            VotingSession storage session = votingSessions[i];\r\n            for (uint j = 0; j < session.options.length; j++) {\r\n                sessionIds[index] = session.id;\r\n                optionNames[index] = session.options[j];\r\n                voteCounts[index] = votes[session.id][session.options[j]];\r\n                index++;\r\n            }\r\n        }\r\n\r\n        return (sessionIds, optionNames, voteCounts);\r\n    }\r\n}\r\n",
  "sourcePath": "C:\\Users\\userlenny\\Desktop\\dip\\blockchain\\contracts\\contracts\\Voting.sol",
  "compiler": {
    "name": "solc",
    "version": "0.5.16+commit.9c3226ce.Emscripten.clang"
  },
  "schemaVersion": "3.4.16",
  "updatedAt": "2024-05-21T13:36:14.687Z",
  "networkType": "ethereum",
  "devdoc": {
    "methods": {}
  },
  "userdoc": {
    "methods": {}
  }
}