{
  "contractName": "Voting",
  "abi": [
    {
      "inputs": [],
      "payable": false,
      "stateMutability": "nonpayable",
      "type": "constructor"
    },
    {
      "anonymous": false,
      "inputs": [
        {
          "indexed": false,
          "internalType": "uint256",
          "name": "id",
          "type": "uint256"
        }
      ],
      "name": "ResultsRevealed",
      "type": "event"
    },
    {
      "anonymous": false,
      "inputs": [
        {
          "indexed": false,
          "internalType": "uint256",
          "name": "sessionId",
          "type": "uint256"
        },
        {
          "indexed": false,
          "internalType": "address",
          "name": "voter",
          "type": "address"
        },
        {
          "indexed": false,
          "internalType": "string",
          "name": "option",
          "type": "string"
        }
      ],
      "name": "Voted",
      "type": "event"
    },
    {
      "anonymous": false,
      "inputs": [
        {
          "indexed": false,
          "internalType": "uint256",
          "name": "id",
          "type": "uint256"
        },
        {
          "indexed": false,
          "internalType": "string",
          "name": "name",
          "type": "string"
        },
        {
          "indexed": false,
          "internalType": "string",
          "name": "description",
          "type": "string"
        },
        {
          "indexed": false,
          "internalType": "string",
          "name": "category",
          "type": "string"
        },
        {
          "indexed": false,
          "internalType": "uint256",
          "name": "endDate",
          "type": "uint256"
        }
      ],
      "name": "VotingCreated",
      "type": "event"
    },
    {
      "anonymous": false,
      "inputs": [
        {
          "indexed": false,
          "internalType": "uint256",
          "name": "id",
          "type": "uint256"
        }
      ],
      "name": "VotingEnded",
      "type": "event"
    },
    {
      "constant": true,
      "inputs": [
        {
          "internalType": "uint256",
          "name": "",
          "type": "uint256"
        },
        {
          "internalType": "address",
          "name": "",
          "type": "address"
        }
      ],
      "name": "hasVoted",
      "outputs": [
        {
          "internalType": "bool",
          "name": "",
          "type": "bool"
        }
      ],
      "payable": false,
      "stateMutability": "view",
      "type": "function"
    },
    {
      "constant": true,
      "inputs": [],
      "name": "owner",
      "outputs": [
        {
          "internalType": "address",
          "name": "",
          "type": "address"
        }
      ],
      "payable": false,
      "stateMutability": "view",
      "type": "function"
    },
    {
      "constant": true,
      "inputs": [
        {
          "internalType": "uint256",
          "name": "",
          "type": "uint256"
        },
        {
          "internalType": "string",
          "name": "",
          "type": "string"
        }
      ],
      "name": "votes",
      "outputs": [
        {
          "internalType": "uint256",
          "name": "",
          "type": "uint256"
        }
      ],
      "payable": false,
      "stateMutability": "view",
      "type": "function"
    },
    {
      "constant": true,
      "inputs": [
        {
          "internalType": "uint256",
          "name": "",
          "type": "uint256"
        }
      ],
      "name": "votingSessions",
      "outputs": [
        {
          "internalType": "uint256",
          "name": "id",
          "type": "uint256"
        },
        {
          "internalType": "string",
          "name": "name",
          "type": "string"
        },
        {
          "internalType": "string",
          "name": "description",
          "type": "string"
        },
        {
          "internalType": "string",
          "name": "category",
          "type": "string"
        },
        {
          "internalType": "uint256",
          "name": "endDate",
          "type": "uint256"
        },
        {
          "internalType": "bool",
          "name": "isActive",
          "type": "bool"
        },
        {
          "internalType": "bool",
          "name": "resultsRevealed",
          "type": "bool"
        },
        {
          "internalType": "address",
          "name": "creator",
          "type": "address"
        }
      ],
      "payable": false,
      "stateMutability": "view",
      "type": "function"
    },
    {
      "constant": false,
      "inputs": [
        {
          "internalType": "string",
          "name": "_name",
          "type": "string"
        },
        {
          "internalType": "string",
          "name": "_description",
          "type": "string"
        },
        {
          "internalType": "string",
          "name": "_category",
          "type": "string"
        },
        {
          "internalType": "string[]",
          "name": "_options",
          "type": "string[]"
        },
        {
          "internalType": "uint256",
          "name": "_endDate",
          "type": "uint256"
        }
      ],
      "name": "createVoting",
      "outputs": [],
      "payable": false,
      "stateMutability": "nonpayable",
      "type": "function"
    },
    {
      "constant": true,
      "inputs": [
        {
          "internalType": "uint256",
          "name": "_id",
          "type": "uint256"
        }
      ],
      "name": "getVotingSession",
      "outputs": [
        {
          "internalType": "string",
          "name": "",
          "type": "string"
        },
        {
          "internalType": "string",
          "name": "",
          "type": "string"
        },
        {
          "internalType": "string",
          "name": "",
          "type": "string"
        },
        {
          "internalType": "string[]",
          "name": "",
          "type": "string[]"
        },
        {
          "internalType": "uint256",
          "name": "",
          "type": "uint256"
        },
        {
          "internalType": "bool",
          "name": "",
          "type": "bool"
        },
        {
          "internalType": "address",
          "name": "",
          "type": "address"
        },
        {
          "internalType": "bool",
          "name": "",
          "type": "bool"
        }
      ],
      "payable": false,
      "stateMutability": "view",
      "type": "function"
    },
    {
      "constant": true,
      "inputs": [],
      "name": "getVotingSessions",
      "outputs": [
        {
          "internalType": "uint256[]",
          "name": "",
          "type": "uint256[]"
        },
        {
          "internalType": "string[]",
          "name": "",
          "type": "string[]"
        },
        {
          "internalType": "string[]",
          "name": "",
          "type": "string[]"
        },
        {
          "internalType": "string[]",
          "name": "",
          "type": "string[]"
        },
        {
          "internalType": "uint256[]",
          "name": "",
          "type": "uint256[]"
        },
        {
          "internalType": "bool[]",
          "name": "",
          "type": "bool[]"
        },
        {
          "internalType": "address[]",
          "name": "",
          "type": "address[]"
        }
      ],
      "payable": false,
      "stateMutability": "view",
      "type": "function"
    },
    {
      "constant": true,
      "inputs": [
        {
          "internalType": "uint256",
          "name": "_id",
          "type": "uint256"
        }
      ],
      "name": "getVotingSessionOptions",
      "outputs": [
        {
          "internalType": "string[]",
          "name": "",
          "type": "string[]"
        }
      ],
      "payable": false,
      "stateMutability": "view",
      "type": "function"
    },
    {
      "constant": false,
      "inputs": [
        {
          "internalType": "uint256",
          "name": "_id",
          "type": "uint256"
        },
        {
          "internalType": "string",
          "name": "_option",
          "type": "string"
        }
      ],
      "name": "vote",
      "outputs": [],
      "payable": false,
      "stateMutability": "nonpayable",
      "type": "function"
    },
    {
      "constant": true,
      "inputs": [
        {
          "internalType": "uint256",
          "name": "_id",
          "type": "uint256"
        }
      ],
      "name": "getVotes",
      "outputs": [
        {
          "internalType": "string[]",
          "name": "",
          "type": "string[]"
        },
        {
          "internalType": "uint256[]",
          "name": "",
          "type": "uint256[]"
        }
      ],
      "payable": false,
      "stateMutability": "view",
      "type": "function"
    },
    {
      "constant": false,
      "inputs": [
        {
          "internalType": "uint256",
          "name": "_id",
          "type": "uint256"
        }
      ],
      "name": "revealResults",
      "outputs": [],
      "payable": false,
      "stateMutability": "nonpayable",
      "type": "function"
    },
    {
      "constant": true,
      "inputs": [],
      "name": "getAllVotes",
      "outputs": [
        {
          "internalType": "uint256[]",
          "name": "",
          "type": "uint256[]"
        },
        {
          "internalType": "string[]",
          "name": "",
          "type": "string[]"
        },
        {
          "internalType": "uint256[]",
          "name": "",
          "type": "uint256[]"
        }
      ],
      "payable": false,
      "stateMutability": "view",
      "type": "function"
    },
    {
      "constant": true,
      "inputs": [
        {
          "internalType": "uint256",
          "name": "_id",
          "type": "uint256"
        },
        {
          "internalType": "address",
          "name": "_user",
          "type": "address"
        }
      ],
      "name": "hasUserVoted",
      "outputs": [
        {
          "internalType": "bool",
          "name": "",
          "type": "bool"
        }
      ],
      "payable": false,
      "stateMutability": "view",
      "type": "function"
    },
    {
      "constant": false,
      "inputs": [
        {
          "internalType": "uint256",
          "name": "_id",
          "type": "uint256"
        }
      ],
      "name": "endVoting",
      "outputs": [],
      "payable": false,
      "stateMutability": "nonpayable",
      "type": "function"
    }
  ],
  "bytecode": "0x608060405234801561001057600080fd5b5033600360006101000a81548173ffffffffffffffffffffffffffffffffffffffff021916908373ffffffffffffffffffffffffffffffffffffffff160217905550613210806100616000396000f3fe608060405234801561001057600080fd5b50600436106100ea5760003560e01c8063649f89a51161008c578063b50ac5fc11610066578063b50ac5fc14610273578063b8f6255a146102a3578063dc296ae1146102bf578063ff981099146102ef576100ea565b8063649f89a514610219578063851b6ef2146102355780638da5cb5b14610255576100ea565b80631943c90b116100c85780631943c90b1461017a5780631c221ca8146101b157806324108475146101cd57806343859632146101e9576100ea565b806303e9630f146100ef5780631186eb7c1461011357806314f3f3491461014a575b600080fd5b6100f7610320565b60405161010a9796959493929190612ab0565b60405180910390f35b61012d60048036036101289190810190612251565b610801565b604051610141989796959493929190612e52565b60405180910390f35b610164600480360361015f91908101906122b6565b610a58565b6040516101719190612d91565b60405180910390f35b610194600480360361018f9190810190612251565b610a93565b6040516101a8989796959493929190612bb7565b60405180910390f35b6101cb60048036036101c6919081019061217a565b610e45565b005b6101e760048036036101e2919081019061230a565b611081565b005b61020360048036036101fe919081019061227a565b6113d9565b6040516102109190612b9c565b60405180910390f35b610233600480360361022e9190810190612251565b611408565b005b61023d611583565b60405161024c93929190612b50565b60405180910390f35b61025d61185a565b60405161026a9190612a3c565b60405180910390f35b61028d60048036036102889190810190612251565b611880565b60405161029a9190612a57565b60405180910390f35b6102bd60048036036102b89190810190612251565b6119e3565b005b6102d960048036036102d4919081019061227a565b611bc5565b6040516102e69190612b9c565b60405180910390f35b61030960048036036103049190810190612251565b611c2d565b604051610317929190612a79565b60405180910390f35b60608060608060608060606000808054905090506060816040519080825280602002602001820160405280156103655781602001602082028038833980820191505090505b50905060608260405190808252806020026020018201604052801561039e57816020015b60608152602001906001900390816103895790505b5090506060836040519080825280602002602001820160405280156103d757816020015b60608152602001906001900390816103c25790505b50905060608460405190808252806020026020018201604052801561041057816020015b60608152602001906001900390816103fb5790505b5090506060856040519080825280602002602001820160405280156104445781602001602082028038833980820191505090505b5090506060866040519080825280602002602001820160405280156104785781602001602082028038833980820191505090505b5090506060876040519080825280602002602001820160405280156104ac5781602001602082028038833980820191505090505b50905060008090505b888110156107da5760008082815481106104cb57fe5b9060005260206000209060070201905080600001548983815181106104ec57fe5b602002602001018181525050806001018054600181600116156101000203166002900480601f0160208091040260200160405190810160405280929190818152602001828054600181600116156101000203166002900480156105905780601f1061056557610100808354040283529160200191610590565b820191906000526020600020905b81548152906001019060200180831161057357829003601f168201915b50505050508883815181106105a157fe5b6020026020010181905250806002018054600181600116156101000203166002900480601f0160208091040260200160405190810160405280929190818152602001828054600181600116156101000203166002900480156106445780601f1061061957610100808354040283529160200191610644565b820191906000526020600020905b81548152906001019060200180831161062757829003601f168201915b505050505087838151811061065557fe5b6020026020010181905250806003018054600181600116156101000203166002900480601f0160208091040260200160405190810160405280929190818152602001828054600181600116156101000203166002900480156106f85780601f106106cd576101008083540402835291602001916106f8565b820191906000526020600020905b8154815290600101906020018083116106db57829003601f168201915b505050505086838151811061070957fe5b6020026020010181905250806005015485838151811061072557fe5b6020026020010181815250508060060160009054906101000a900460ff1684838151811061074f57fe5b6020026020010190151590811515815250508060060160029054906101000a900473ffffffffffffffffffffffffffffffffffffffff1683838151811061079257fe5b602002602001019073ffffffffffffffffffffffffffffffffffffffff16908173ffffffffffffffffffffffffffffffffffffffff16815250505080806001019150506104b5565b50868686868686869e509e509e509e509e509e509e50505050505050505090919293949596565b6000818154811061080e57fe5b9060005260206000209060070201600091509050806000015490806001018054600181600116156101000203166002900480601f0160208091040260200160405190810160405280929190818152602001828054600181600116156101000203166002900480156108c05780601f10610895576101008083540402835291602001916108c0565b820191906000526020600020905b8154815290600101906020018083116108a357829003601f168201915b505050505090806002018054600181600116156101000203166002900480601f01602080910402602001604051908101604052809291908181526020018280546001816001161561010002031660029004801561095e5780601f106109335761010080835404028352916020019161095e565b820191906000526020600020905b81548152906001019060200180831161094157829003601f168201915b505050505090806003018054600181600116156101000203166002900480601f0160208091040260200160405190810160405280929190818152602001828054600181600116156101000203166002900480156109fc5780601f106109d1576101008083540402835291602001916109fc565b820191906000526020600020905b8154815290600101906020018083116109df57829003601f168201915b5050505050908060050154908060060160009054906101000a900460ff16908060060160019054906101000a900460ff16908060060160029054906101000a900473ffffffffffffffffffffffffffffffffffffffff16905088565b600160205281600052604060002081805160208101820180518482526020830160208501208183528095505050505050600091509150505481565b606080606080600080600080600089118015610ab457506000805490508911155b610af3576040517f08c379a0000000000000000000000000000000000000000000000000000000008152600401610aea90612d31565b60405180910390fd5b60008060018b0381548110610b0457fe5b906000526020600020906007020190508060010181600201826003018360040184600501548560060160009054906101000a900460ff168660060160029054906101000a900473ffffffffffffffffffffffffffffffffffffffff168760060160019054906101000a900460ff16878054600181600116156101000203166002900480601f016020809104026020016040519081016040528092919081815260200182805460018160011615610100020316600290048015610c075780601f10610bdc57610100808354040283529160200191610c07565b820191906000526020600020905b815481529060010190602001808311610bea57829003601f168201915b50505050509750868054600181600116156101000203166002900480601f016020809104026020016040519081016040528092919081815260200182805460018160011615610100020316600290048015610ca35780601f10610c7857610100808354040283529160200191610ca3565b820191906000526020600020905b815481529060010190602001808311610c8657829003601f168201915b50505050509650858054600181600116156101000203166002900480601f016020809104026020016040519081016040528092919081815260200182805460018160011615610100020316600290048015610d3f5780601f10610d1457610100808354040283529160200191610d3f565b820191906000526020600020905b815481529060010190602001808311610d2257829003601f168201915b5050505050955084805480602002602001604051908101604052809291908181526020016000905b82821015610e23578382906000526020600020018054600181600116156101000203166002900480601f016020809104026020016040519081016040528092919081815260200182805460018160011615610100020316600290048015610e0f5780601f10610de457610100808354040283529160200191610e0f565b820191906000526020600020905b815481529060010190602001808311610df257829003601f168201915b505050505081526020019060010190610d67565b5050505094509850985098509850985098509850985050919395975091939597565b428111610e87576040517f08c379a0000000000000000000000000000000000000000000000000000000008152600401610e7e90612c51565b60405180910390fd5b610e8f611e55565b60405180610120016040528060016000805490500181526020018781526020018681526020018581526020018481526020018381526020016001151581526020016000151581526020013373ffffffffffffffffffffffffffffffffffffffff16815250905060008190806001815401808255809150509060018203906000526020600020906007020160009091929091909150600082015181600001556020820151816001019080519060200190610f49929190611ebb565b506040820151816002019080519060200190610f66929190611ebb565b506060820151816003019080519060200190610f83929190611ebb565b506080820151816004019080519060200190610fa0929190611f3b565b5060a0820151816005015560c08201518160060160006101000a81548160ff02191690831515021790555060e08201518160060160016101000a81548160ff0219169083151502179055506101008201518160060160026101000a81548173ffffffffffffffffffffffffffffffffffffffff021916908373ffffffffffffffffffffffffffffffffffffffff1602179055505050507f169243c643f4f7eb5a74214dcd7f7976cac663d573d8184cf81a189d52253705816000015187878786604051611071959493929190612dea565b60405180910390a1505050505050565b816000600182038154811061109257fe5b906000526020600020906007020160060160009054906101000a900460ff166110f0576040517f08c379a00000000000000000000000000000000000000000000000000000000081526004016110e790612cd1565b60405180910390fd5b6000600182038154811061110057fe5b9060005260206000209060070201600501544210611153576040517f08c379a000000000000000000000000000000000000000000000000000000000815260040161114a90612d51565b60405180910390fd5b600080600185038154811061116457fe5b906000526020600020906007020190506002600085815260200190815260200160002060003373ffffffffffffffffffffffffffffffffffffffff1673ffffffffffffffffffffffffffffffffffffffff16815260200190815260200160002060009054906101000a900460ff1615611212576040517f08c379a000000000000000000000000000000000000000000000000000000000815260040161120990612d71565b60405180910390fd5b600080905060008090505b82600401805490508110156112ae578460405160200161123d9190612a0e565b6040516020818303038152906040528051906020012083600401828154811061126257fe5b9060005260206000200160405160200161127c9190612a25565b6040516020818303038152906040528051906020012014156112a157600191506112ae565b808060010191505061121d565b50806112ef576040517f08c379a00000000000000000000000000000000000000000000000000000000081526004016112e690612d11565b60405180910390fd5b60016000868152602001908152602001600020846040516113109190612a0e565b90815260200160405180910390206000815480929190600101919050555060016002600087815260200190815260200160002060003373ffffffffffffffffffffffffffffffffffffffff1673ffffffffffffffffffffffffffffffffffffffff16815260200190815260200160002060006101000a81548160ff0219169083151502179055507f909b43dcc56d91024768bbc5c8d56441234580b2fd6176844960cbc7218cc0b58533866040516113ca93929190612dac565b60405180910390a15050505050565b60026020528160005260406000206020528060005260406000206000915091509054906101000a900460ff1681565b806000600182038154811061141957fe5b906000526020600020906007020160060160029054906101000a900473ffffffffffffffffffffffffffffffffffffffff1673ffffffffffffffffffffffffffffffffffffffff163373ffffffffffffffffffffffffffffffffffffffff16146114b8576040517f08c379a00000000000000000000000000000000000000000000000000000000081526004016114af90612cf1565b60405180910390fd5b60008060018403815481106114c957fe5b906000526020600020906007020190508060060160009054906101000a900460ff1661152a576040517f08c379a000000000000000000000000000000000000000000000000000000000815260040161152190612cb1565b60405180910390fd5b60008160060160006101000a81548160ff0219169083151502179055507f81eb7415440ff8e6c8e92606fd3b0e5e6a5c99ea90cdb63b41aec54e897312b3836040516115769190612d91565b60405180910390a1505050565b6060806060600080805490509050600080905060008090505b828110156115d757600081815481106115b157fe5b90600052602060002090600702016004018054905082019150808060010191505061159c565b506060816040519080825280602002602001820160405280156116095781602001602082028038833980820191505090505b50905060608260405190808252806020026020018201604052801561164257816020015b606081526020019060019003908161162d5790505b5090506060836040519080825280602002602001820160405280156116765781602001602082028038833980820191505090505b509050600080905060008090505b8681101561184557600080828154811061169a57fe5b906000526020600020906007020190508060060160019054906101000a900460ff16156118375760008090505b81600401805490508110156118355781600001548785815181106116e757fe5b60200260200101818152505081600401818154811061170257fe5b906000526020600020018054600181600116156101000203166002900480601f0160208091040260200160405190810160405280929190818152602001828054600181600116156101000203166002900480156117a05780601f10611775576101008083540402835291602001916117a0565b820191906000526020600020905b81548152906001019060200180831161178357829003601f168201915b50505050508685815181106117b157fe5b602002602001018190525060016000836000015481526020019081526020016000208260040182815481106117e257fe5b906000526020600020016040516117f99190612a25565b90815260200160405180910390205485858151811061181457fe5b602002602001018181525050838060010194505080806001019150506116c7565b505b508080600101915050611684565b50838383985098509850505050505050909192565b600360009054906101000a900473ffffffffffffffffffffffffffffffffffffffff1681565b606060008211801561189757506000805490508211155b6118d6576040517f08c379a00000000000000000000000000000000000000000000000000000000081526004016118cd90612d31565b60405180910390fd5b60008060018403815481106118e757fe5b9060005260206000209060070201905080600401805480602002602001604051908101604052809291908181526020016000905b828210156119d7578382906000526020600020018054600181600116156101000203166002900480601f0160208091040260200160405190810160405280929190818152602001828054600181600116156101000203166002900480156119c35780601f10611998576101008083540402835291602001916119c3565b820191906000526020600020905b8154815290600101906020018083116119a657829003601f168201915b50505050508152602001906001019061191b565b50505050915050919050565b80600060018203815481106119f457fe5b906000526020600020906007020160060160029054906101000a900473ffffffffffffffffffffffffffffffffffffffff1673ffffffffffffffffffffffffffffffffffffffff163373ffffffffffffffffffffffffffffffffffffffff1614611a93576040517f08c379a0000000000000000000000000000000000000000000000000000000008152600401611a8a90612cf1565b60405180910390fd5b8160006001820381548110611aa457fe5b906000526020600020906007020160050154421015611af8576040517f08c379a0000000000000000000000000000000000000000000000000000000008152600401611aef90612c71565b60405180910390fd5b6000806001850381548110611b0957fe5b906000526020600020906007020190508060060160019054906101000a900460ff1615611b6b576040517f08c379a0000000000000000000000000000000000000000000000000000000008152600401611b6290612c91565b60405180910390fd5b60018160060160016101000a81548160ff0219169083151502179055507fdad003ccb029c02aa1b065bb7ecdf9df8b66c4a46dcdb93befeb2b3408a2849a84604051611bb79190612d91565b60405180910390a150505050565b60006002600084815260200190815260200160002060008373ffffffffffffffffffffffffffffffffffffffff1673ffffffffffffffffffffffffffffffffffffffff16815260200190815260200160002060009054906101000a900460ff16905092915050565b606080600083118015611c4557506000805490508311155b611c84576040517f08c379a0000000000000000000000000000000000000000000000000000000008152600401611c7b90612d31565b60405180910390fd5b6000806001850381548110611c9557fe5b90600052602060002090600702019050600081600401805490509050606081604051908082528060200260200182016040528015611ce25781602001602082028038833980820191505090505b50905060008090505b82811015611d605760016000888152602001908152602001600020846004018281548110611d1557fe5b90600052602060002001604051611d2c9190612a25565b908152602001604051809103902054828281518110611d4757fe5b6020026020010181815250508080600101915050611ceb565b50826004018181805480602002602001604051908101604052809291908181526020016000905b82821015611e43578382906000526020600020018054600181600116156101000203166002900480601f016020809104026020016040519081016040528092919081815260200182805460018160011615610100020316600290048015611e2f5780601f10611e0457610100808354040283529160200191611e2f565b820191906000526020600020905b815481529060010190602001808311611e1257829003601f168201915b505050505081526020019060010190611d87565b50505050915094509450505050915091565b604051806101200160405280600081526020016060815260200160608152602001606081526020016060815260200160008152602001600015158152602001600015158152602001600073ffffffffffffffffffffffffffffffffffffffff1681525090565b828054600181600116156101000203166002900490600052602060002090601f016020900481019282601f10611efc57805160ff1916838001178555611f2a565b82800160010185558215611f2a579182015b82811115611f29578251825591602001919060010190611f0e565b5b509050611f379190611f9b565b5090565b828054828255906000526020600020908101928215611f8a579160200282015b82811115611f89578251829080519060200190611f79929190611ebb565b5091602001919060010190611f5b565b5b509050611f979190611fc0565b5090565b611fbd91905b80821115611fb9576000816000905550600101611fa1565b5090565b90565b611fe991905b80821115611fe55760008181611fdc9190611fec565b50600101611fc6565b5090565b90565b50805460018160011615610100020316600290046000825580601f106120125750612031565b601f0160209004906000526020600020908101906120309190611f9b565b5b50565b6000813590506120438161319f565b92915050565b600082601f83011261205a57600080fd5b813561206d61206882612f12565b612ee5565b9150818183526020840193506020810190508360005b838110156120b3578135860161209988826120bd565b845260208401935060208301925050600181019050612083565b5050505092915050565b600082601f8301126120ce57600080fd5b81356120e16120dc82612f3a565b612ee5565b915080825260208301602083018583830111156120fd57600080fd5b61210883828461314c565b50505092915050565b600082601f83011261212257600080fd5b813561213561213082612f66565b612ee5565b9150808252602083016020830185838301111561215157600080fd5b61215c83828461314c565b50505092915050565b600081359050612174816131b6565b92915050565b600080600080600060a0868803121561219257600080fd5b600086013567ffffffffffffffff8111156121ac57600080fd5b6121b888828901612111565b955050602086013567ffffffffffffffff8111156121d557600080fd5b6121e188828901612111565b945050604086013567ffffffffffffffff8111156121fe57600080fd5b61220a88828901612111565b935050606086013567ffffffffffffffff81111561222757600080fd5b61223388828901612049565b925050608061224488828901612165565b9150509295509295909350565b60006020828403121561226357600080fd5b600061227184828501612165565b91505092915050565b6000806040838503121561228d57600080fd5b600061229b85828601612165565b92505060206122ac85828601612034565b9150509250929050565b600080604083850312156122c957600080fd5b60006122d785828601612165565b925050602083013567ffffffffffffffff8111156122f457600080fd5b612300858286016120bd565b9150509250929050565b6000806040838503121561231d57600080fd5b600061232b85828601612165565b925050602083013567ffffffffffffffff81111561234857600080fd5b61235485828601612111565b9150509250929050565b600061236a83836123c9565b60208301905092915050565b60006123828383612576565b60208301905092915050565b600061239a83836125fe565b905092915050565b60006123ae83836129f0565b60208301905092915050565b6123c381613116565b82525050565b6123d2816130ce565b82525050565b6123e1816130ce565b82525050565b60006123f282612fe7565b6123fc818561305d565b935061240783612f92565b8060005b8381101561243857815161241f888261235e565b975061242a83613029565b92505060018101905061240b565b5085935050505092915050565b600061245082612ff2565b61245a818561306e565b935061246583612fa2565b8060005b8381101561249657815161247d8882612376565b975061248883613036565b925050600181019050612469565b5085935050505092915050565b60006124ae82612ffd565b6124b8818561307f565b9350836020820285016124ca85612fb2565b8060005b8581101561250657848403895281516124e7858261238e565b94506124f283613043565b925060208a019950506001810190506124ce565b50829750879550505050505092915050565b600061252382613008565b61252d8185613090565b935061253883612fc2565b8060005b8381101561256957815161255088826123a2565b975061255b83613050565b92505060018101905061253c565b5085935050505092915050565b61257f816130e0565b82525050565b61258e816130e0565b82525050565b600061259f8261301e565b6125a981856130b2565b93506125b981856020860161315b565b6125c28161318e565b840191505092915050565b60006125d88261301e565b6125e281856130c3565b93506125f281856020860161315b565b80840191505092915050565b600061260982613013565b61261381856130a1565b935061262381856020860161315b565b61262c8161318e565b840191505092915050565b600061264282613013565b61264c81856130b2565b935061265c81856020860161315b565b6126658161318e565b840191505092915050565b60008154600181166000811461268d57600181146126b2576126f6565b607f600283041661269e81876130c3565b955060ff19831686528086019350506126f6565b600282046126c081876130c3565b95506126cb85612fd2565b60005b828110156126ed578154818901526001820191506020810190506126ce565b82880195505050505b505092915050565b600061270b6022836130b2565b91507f54686520656e642064617465206d75737420626520696e20746865206675747560008301527f72650000000000000000000000000000000000000000000000000000000000006020830152604082019050919050565b60006127716016836130b2565b91507f566f74696e67206973207374696c6c20616374697665000000000000000000006000830152602082019050919050565b60006127b16022836130b2565b91507f526573756c7473206861766520616c7265616479206265656e2072657665616c60008301527f65640000000000000000000000000000000000000000000000000000000000006020830152604082019050919050565b60006128176017836130b2565b91507f566f74696e6720697320616c726561647920656e6465640000000000000000006000830152602082019050919050565b60006128576014836130b2565b91507f566f74696e67206973206e6f74206163746976650000000000000000000000006000830152602082019050919050565b6000612897603e836130b2565b91507f4f6e6c79207468652063726561746f72206f662074686520766f74696e67207360008301527f657373696f6e2063616e20706572666f726d207468697320616374696f6e00006020830152604082019050919050565b60006128fd601c836130b2565b91507f566f74696e67206f7074696f6e20646f6573206e6f74206578697374000000006000830152602082019050919050565b600061293d6011836130b2565b91507f496e76616c696420766f74696e672049440000000000000000000000000000006000830152602082019050919050565b600061297d6017836130b2565b91507f566f74696e672074696d652068617320657870697265640000000000000000006000830152602082019050919050565b60006129bd6016836130b2565b91507f596f75206861766520616c726561647920766f746564000000000000000000006000830152602082019050919050565b6129f98161310c565b82525050565b612a088161310c565b82525050565b6000612a1a82846125cd565b915081905092915050565b6000612a318284612670565b915081905092915050565b6000602082019050612a5160008301846123d8565b92915050565b60006020820190508181036000830152612a7181846124a3565b905092915050565b60006040820190508181036000830152612a9381856124a3565b90508181036020830152612aa78184612518565b90509392505050565b600060e0820190508181036000830152612aca818a612518565b90508181036020830152612ade81896124a3565b90508181036040830152612af281886124a3565b90508181036060830152612b0681876124a3565b90508181036080830152612b1a8186612518565b905081810360a0830152612b2e8185612445565b905081810360c0830152612b4281846123e7565b905098975050505050505050565b60006060820190508181036000830152612b6a8186612518565b90508181036020830152612b7e81856124a3565b90508181036040830152612b928184612518565b9050949350505050565b6000602082019050612bb16000830184612585565b92915050565b6000610100820190508181036000830152612bd2818b612594565b90508181036020830152612be6818a612594565b90508181036040830152612bfa8189612594565b90508181036060830152612c0e81886124a3565b9050612c1d60808301876129ff565b612c2a60a0830186612585565b612c3760c08301856123d8565b612c4460e0830184612585565b9998505050505050505050565b60006020820190508181036000830152612c6a816126fe565b9050919050565b60006020820190508181036000830152612c8a81612764565b9050919050565b60006020820190508181036000830152612caa816127a4565b9050919050565b60006020820190508181036000830152612cca8161280a565b9050919050565b60006020820190508181036000830152612cea8161284a565b9050919050565b60006020820190508181036000830152612d0a8161288a565b9050919050565b60006020820190508181036000830152612d2a816128f0565b9050919050565b60006020820190508181036000830152612d4a81612930565b9050919050565b60006020820190508181036000830152612d6a81612970565b9050919050565b60006020820190508181036000830152612d8a816129b0565b9050919050565b6000602082019050612da660008301846129ff565b92915050565b6000606082019050612dc160008301866129ff565b612dce60208301856123ba565b8181036040830152612de08184612594565b9050949350505050565b600060a082019050612dff60008301886129ff565b8181036020830152612e118187612594565b90508181036040830152612e258186612594565b90508181036060830152612e398185612594565b9050612e4860808301846129ff565b9695505050505050565b600061010082019050612e68600083018b6129ff565b8181036020830152612e7a818a612637565b90508181036040830152612e8e8189612637565b90508181036060830152612ea28188612637565b9050612eb160808301876129ff565b612ebe60a0830186612585565b612ecb60c0830185612585565b612ed860e08301846123d8565b9998505050505050505050565b6000604051905081810181811067ffffffffffffffff82111715612f0857600080fd5b8060405250919050565b600067ffffffffffffffff821115612f2957600080fd5b602082029050602081019050919050565b600067ffffffffffffffff821115612f5157600080fd5b601f19601f8301169050602081019050919050565b600067ffffffffffffffff821115612f7d57600080fd5b601f19601f8301169050602081019050919050565b6000819050602082019050919050565b6000819050602082019050919050565b6000819050602082019050919050565b6000819050602082019050919050565b60008190508160005260206000209050919050565b600081519050919050565b600081519050919050565b600081519050919050565b600081519050919050565b600081519050919050565b600081519050919050565b6000602082019050919050565b6000602082019050919050565b6000602082019050919050565b6000602082019050919050565b600082825260208201905092915050565b600082825260208201905092915050565b600082825260208201905092915050565b600082825260208201905092915050565b600082825260208201905092915050565b600082825260208201905092915050565b600081905092915050565b60006130d9826130ec565b9050919050565b60008115159050919050565b600073ffffffffffffffffffffffffffffffffffffffff82169050919050565b6000819050919050565b600061312182613128565b9050919050565b60006131338261313a565b9050919050565b6000613145826130ec565b9050919050565b82818337600083830152505050565b60005b8381101561317957808201518184015260208101905061315e565b83811115613188576000848401525b50505050565b6000601f19601f8301169050919050565b6131a8816130ce565b81146131b357600080fd5b50565b6131bf8161310c565b81146131ca57600080fd5b5056fea365627a7a72315820a88b8e4e272800e924814e737aaa7db7ebdc1d82c8b00c544ac04c9ccb1523846c6578706572696d656e74616cf564736f6c63430005100040",
  "source": "// SPDX-License-Identifier: UNLICENSED\r\npragma solidity >=0.4.22 <0.9.0;\r\npragma experimental ABIEncoderV2;\r\n\r\ncontract Voting {\r\n    struct VotingSession {\r\n        uint id;\r\n        string name;\r\n        string description;\r\n        string category;\r\n        string[] options;\r\n        uint endDate;\r\n        bool isActive;\r\n        bool resultsRevealed;\r\n        address creator;\r\n    }\r\n\r\n    VotingSession[] public votingSessions;\r\n    mapping(uint => mapping(string => uint)) public votes;\r\n    mapping(uint => mapping(address => bool)) public hasVoted;\r\n    address public owner;\r\n\r\n    event VotingCreated(uint id, string name, string description, string category, uint endDate);\r\n    event Voted(uint sessionId, address voter, string option);\r\n    event VotingEnded(uint id);\r\n    event ResultsRevealed(uint id);\r\n\r\n    modifier onlyOwner() {\r\n        require(msg.sender == owner, \"Only the owner can perform this action\");\r\n        _;\r\n    }\r\n\r\n    modifier onlyCreator(uint _id) {\r\n        require(msg.sender == votingSessions[_id - 1].creator, \"Only the creator of the voting session can perform this action\");\r\n        _;\r\n    }\r\n\r\n    modifier activeVoting(uint _id) {\r\n        require(votingSessions[_id - 1].isActive, \"Voting is not active\");\r\n        require(block.timestamp < votingSessions[_id - 1].endDate, \"Voting time has expired\");\r\n        _;\r\n    }\r\n\r\n    modifier votingEnded(uint _id) {\r\n        require(block.timestamp >= votingSessions[_id - 1].endDate, \"Voting is still active\");\r\n        _;\r\n    }\r\n\r\n    constructor() public {\r\n        owner = msg.sender;\r\n    }\r\n\r\n    function createVoting(string memory _name, string memory _description, string memory _category, string[] memory _options, uint _endDate) public {\r\n        require(_endDate > block.timestamp, \"The end date must be in the future\");\r\n\r\n        VotingSession memory newVoting = VotingSession({\r\n            id: votingSessions.length + 1,\r\n            name: _name,\r\n            description: _description,\r\n            category: _category,\r\n            options: _options,\r\n            endDate: _endDate,\r\n            isActive: true,\r\n            resultsRevealed: false,\r\n            creator: msg.sender\r\n        });\r\n\r\n        votingSessions.push(newVoting);\r\n        emit VotingCreated(newVoting.id, _name, _description, _category, _endDate);\r\n    }\r\n\r\n    function getVotingSession(uint _id) public view returns (string memory, string memory, string memory, string[] memory, uint, bool, address, bool) {\r\n        require(_id > 0 && _id <= votingSessions.length, \"Invalid voting ID\");\r\n        VotingSession storage session = votingSessions[_id - 1];\r\n        return (session.name, session.description, session.category, session.options, session.endDate, session.isActive, session.creator, session.resultsRevealed);\r\n    }\r\n\r\n    function getVotingSessions() public view returns (uint[] memory, string[] memory, string[] memory, string[] memory, uint[] memory, bool[] memory, address[] memory) {\r\n        uint length = votingSessions.length;\r\n\r\n        uint[] memory ids = new uint[](length);\r\n        string[] memory names = new string[](length);\r\n        string[] memory descriptions = new string[](length);\r\n        string[] memory categories = new string[](length);\r\n        uint[] memory endDates = new uint[](length);\r\n        bool[] memory statuses = new bool[](length);\r\n        address[] memory creators = new address[](length);\r\n\r\n        for (uint i = 0; i < length; i++) {\r\n            VotingSession storage session = votingSessions[i];\r\n            ids[i] = session.id;\r\n            names[i] = session.name;\r\n            descriptions[i] = session.description;\r\n            categories[i] = session.category;\r\n            endDates[i] = session.endDate;\r\n            statuses[i] = session.isActive;\r\n            creators[i] = session.creator;\r\n        }\r\n\r\n        return (ids, names, descriptions, categories, endDates, statuses, creators);\r\n    }\r\n\r\n    function getVotingSessionOptions(uint _id) public view returns (string[] memory) {\r\n        require(_id > 0 && _id <= votingSessions.length, \"Invalid voting ID\");\r\n        VotingSession storage session = votingSessions[_id - 1];\r\n        return session.options;\r\n    }\r\n\r\n    function vote(uint _id, string memory _option) public activeVoting(_id) {\r\n        VotingSession storage session = votingSessions[_id - 1];\r\n        require(!hasVoted[_id][msg.sender], \"You have already voted\");\r\n\r\n        bool optionExists = false;\r\n        for (uint i = 0; i < session.options.length; i++) {\r\n            if (keccak256(abi.encodePacked(session.options[i])) == keccak256(abi.encodePacked(_option))) {\r\n                optionExists = true;\r\n                break;\r\n            }\r\n        }\r\n        require(optionExists, \"Voting option does not exist\");\r\n\r\n        votes[_id][_option]++;\r\n        hasVoted[_id][msg.sender] = true;\r\n        emit Voted(_id, msg.sender, _option);\r\n    }\r\n\r\n    function getVotes(uint _id) public view returns (string[] memory, uint[] memory) {\r\n        require(_id > 0 && _id <= votingSessions.length, \"Invalid voting ID\");\r\n        VotingSession storage session = votingSessions[_id - 1];\r\n        //require(session.resultsRevealed, \"Results are not yet revealed\");\r\n\r\n        uint optionsLength = session.options.length;\r\n        uint[] memory voteCounts = new uint[](optionsLength);\r\n\r\n        for (uint i = 0; i < optionsLength; i++) {\r\n            voteCounts[i] = votes[_id][session.options[i]];\r\n        }\r\n\r\n        return (session.options, voteCounts);\r\n    }\r\n\r\n    function revealResults(uint _id) public onlyCreator(_id) votingEnded(_id) {\r\n        VotingSession storage session = votingSessions[_id - 1];\r\n        require(!session.resultsRevealed, \"Results have already been revealed\");\r\n\r\n        session.resultsRevealed = true;\r\n        emit ResultsRevealed(_id);\r\n    }\r\n\r\n    function getAllVotes() public view returns (uint[] memory, string[] memory, uint[] memory) {\r\n        uint sessionsLength = votingSessions.length;\r\n        uint totalOptions = 0;\r\n\r\n        for (uint i = 0; i < sessionsLength; i++) {\r\n            totalOptions += votingSessions[i].options.length;\r\n        }\r\n\r\n        uint[] memory sessionIds = new uint[](totalOptions);\r\n        string[] memory optionNames = new string[](totalOptions);\r\n        uint[] memory voteCounts = new uint[](totalOptions);\r\n\r\n        uint index = 0;\r\n        for (uint i = 0; i < sessionsLength; i++) {\r\n            VotingSession storage session = votingSessions[i];\r\n            if (session.resultsRevealed) {\r\n                for (uint j = 0; j < session.options.length; j++) {\r\n                    sessionIds[index] = session.id;\r\n                    optionNames[index] = session.options[j];\r\n                    voteCounts[index] = votes[session.id][session.options[j]];\r\n                    index++;\r\n                }\r\n            }\r\n        }\r\n\r\n        return (sessionIds, optionNames, voteCounts);\r\n    }\r\n\r\n    function hasUserVoted(uint _id, address _user) public view returns (bool) {\r\n        return hasVoted[_id][_user];\r\n    }\r\n\r\n    function endVoting(uint _id) public onlyCreator(_id) {\r\n        VotingSession storage session = votingSessions[_id - 1];\r\n        require(session.isActive, \"Voting is already ended\");\r\n\r\n        session.isActive = false;\r\n        emit VotingEnded(_id);\r\n    }\r\n}\r\n",
  "sourcePath": "C:\\Users\\Lenny\\Desktop\\dip\\dip\\blockchain\\contracts\\contracts\\Voting.sol",
  "compiler": {
    "name": "solc",
    "version": "0.5.16+commit.9c3226ce.Emscripten.clang"
  },
  "schemaVersion": "3.4.16",
  "updatedAt": "2024-05-28T16:15:55.550Z",
  "networkType": "ethereum",
  "devdoc": {
    "methods": {}
  },
  "userdoc": {
    "methods": {}
  }
}