{
  "contractName": "Voting",
  "abi": [
    {
      "constant": true,
      "inputs": [
        {
          "internalType": "uint256",
          "name": "",
          "type": "uint256"
        }
      ],
      "name": "votingSessions",
      "outputs": [
        {
          "internalType": "uint256",
          "name": "id",
          "type": "uint256"
        },
        {
          "internalType": "string",
          "name": "name",
          "type": "string"
        },
        {
          "internalType": "uint256",
          "name": "endDate",
          "type": "uint256"
        },
        {
          "internalType": "bool",
          "name": "isActive",
          "type": "bool"
        }
      ],
      "payable": false,
      "stateMutability": "view",
      "type": "function"
    },
    {
      "constant": false,
      "inputs": [
        {
          "internalType": "string",
          "name": "_name",
          "type": "string"
        },
        {
          "internalType": "string[]",
          "name": "_options",
          "type": "string[]"
        },
        {
          "internalType": "uint256",
          "name": "_endDate",
          "type": "uint256"
        }
      ],
      "name": "createVoting",
      "outputs": [],
      "payable": false,
      "stateMutability": "nonpayable",
      "type": "function"
    }
  ],
  "bytecode": "0x608060405234801561001057600080fd5b506108ed806100206000396000f3fe608060405234801561001057600080fd5b50600436106100365760003560e01c80631186eb7c1461003b578063512ec77f1461006e575b600080fd5b610055600480360361005091908101906105e9565b61008a565b6040516100659493929190610715565b60405180910390f35b6100886004803603610083919081019061056a565b61016c565b005b6000818154811061009757fe5b9060005260206000209060060201600091509050806000015490806001018054600181600116156101000203166002900480601f0160208091040260200160405190810160405280929190818152602001828054600181600116156101000203166002900480156101495780601f1061011e57610100808354040283529160200191610149565b820191906000526020600020905b81548152906001019060200180831161012c57829003601f168201915b5050505050908060040154908060050160009054906101000a900460ff16905084565b4281116101ae576040517f08c379a00000000000000000000000000000000000000000000000000000000081526004016101a5906106f5565b60405180910390fd5b6101b661028f565b6040518060a0016040528060016000805490500181526020018581526020018481526020018381526020016001151581525090506000819080600181540180825580915050906001820390600052602060002090600602016000909192909190915060008201518160000155602082015181600101908051906020019061023e9291906102c0565b50604082015181600201908051906020019061025b929190610340565b506060820151816004015560808201518160050160006101000a81548160ff02191690831515021790555050505050505050565b6040518060a00160405280600081526020016060815260200160608152602001600081526020016000151581525090565b828054600181600116156101000203166002900490600052602060002090601f016020900481019282601f1061030157805160ff191683800117855561032f565b8280016001018555821561032f579182015b8281111561032e578251825591602001919060010190610313565b5b50905061033c91906103a0565b5090565b82805482825590600052602060002090810192821561038f579160200282015b8281111561038e57825182908051906020019061037e9291906102c0565b5091602001919060010190610360565b5b50905061039c91906103c5565b5090565b6103c291905b808211156103be5760008160009055506001016103a6565b5090565b90565b6103ee91905b808211156103ea57600081816103e191906103f1565b506001016103cb565b5090565b90565b50805460018160011615610100020316600290046000825580601f106104175750610436565b601f01602090049060005260206000209081019061043591906103a0565b5b50565b600082601f83011261044a57600080fd5b813561045d6104588261078e565b610761565b9150818183526020840193506020810190508360005b838110156104a3578135860161048988826104ad565b845260208401935060208301925050600181019050610473565b5050505092915050565b600082601f8301126104be57600080fd5b81356104d16104cc826107b6565b610761565b915080825260208301602083018583830111156104ed57600080fd5b6104f8838284610840565b50505092915050565b600082601f83011261051257600080fd5b8135610525610520826107e2565b610761565b9150808252602083016020830185838301111561054157600080fd5b61054c838284610840565b50505092915050565b60008135905061056481610893565b92915050565b60008060006060848603121561057f57600080fd5b600084013567ffffffffffffffff81111561059957600080fd5b6105a586828701610501565b935050602084013567ffffffffffffffff8111156105c257600080fd5b6105ce86828701610439565b92505060406105df86828701610555565b9150509250925092565b6000602082840312156105fb57600080fd5b600061060984828501610555565b91505092915050565b61061b8161082a565b82525050565b600061062c8261080e565b6106368185610819565b935061064681856020860161084f565b61064f81610882565b840191505092915050565b6000610667604583610819565b91507fd094d0b0d182d0b020d0b7d0b0d0b2d0b5d180d188d0b5d0bdd0b8d18f20d0b460008301527fd0bed0bbd0b6d0bdd0b020d0b1d18bd182d18c20d0b220d0b1d183d0b4d183d160208301527f89d0b5d0bc0000000000000000000000000000000000000000000000000000006040830152606082019050919050565b6106ef81610836565b82525050565b6000602082019050818103600083015261070e8161065a565b9050919050565b600060808201905061072a60008301876106e6565b818103602083015261073c8186610621565b905061074b60408301856106e6565b6107586060830184610612565b95945050505050565b6000604051905081810181811067ffffffffffffffff8211171561078457600080fd5b8060405250919050565b600067ffffffffffffffff8211156107a557600080fd5b602082029050602081019050919050565b600067ffffffffffffffff8211156107cd57600080fd5b601f19601f8301169050602081019050919050565b600067ffffffffffffffff8211156107f957600080fd5b601f19601f8301169050602081019050919050565b600081519050919050565b600082825260208201905092915050565b60008115159050919050565b6000819050919050565b82818337600083830152505050565b60005b8381101561086d578082015181840152602081019050610852565b8381111561087c576000848401525b50505050565b6000601f19601f8301169050919050565b61089c81610836565b81146108a757600080fd5b5056fea365627a7a7231582041a94f9def3329f244eaa6fe480404e20edbad924d25c4c716077f523bc70ace6c6578706572696d656e74616cf564736f6c63430005100040",
  "source": "// SPDX-License-Identifier: UNLICENSED \r\n\r\npragma solidity >=0.4.22 <0.9.0;\r\npragma experimental ABIEncoderV2; // Включаем экспериментальный функционал\r\n\r\ncontract Voting {\r\n    // Структура для представления голосования\r\n    struct VotingSession {\r\n        uint id;\r\n        string name;\r\n        string[] options;\r\n        mapping(string => uint) votes;\r\n        uint endDate;\r\n        bool isActive;\r\n    }\r\n\r\n    VotingSession[] public votingSessions;\r\n\r\n    // Функция для создания нового голосования\r\n    function createVoting(string memory _name, string[] memory _options, uint _endDate) public {\r\n        require(_endDate > block.timestamp, \"Дата завершения должна быть в будущем\");\r\n\r\n        VotingSession memory newVoting = VotingSession({\r\n            id: votingSessions.length + 1,\r\n            name: _name,\r\n            options: _options,\r\n            endDate: _endDate,\r\n            isActive: true\r\n        });\r\n\r\n        votingSessions.push(newVoting);\r\n    }\r\n}",
  "sourcePath": "C:\\Users\\Lenny\\Desktop\\dip\\dip\\blockchain\\contracts\\contracts\\Voting.sol",
  "compiler": {
    "name": "solc",
    "version": "0.5.16+commit.9c3226ce.Emscripten.clang"
  },
  "schemaVersion": "3.4.16",
  "updatedAt": "2024-05-15T10:20:00.689Z",
  "networkType": "ethereum",
  "devdoc": {
    "methods": {}
  },
  "userdoc": {
    "methods": {}
  }
}